:10000000003000024F010000110100001301000048
:1000100015010000170100001901000048C9FFFD8B
:100020000000000000000000000000001B010000B4
:100030001D010000000000001F0100002101000060
:100040002301000023010000230100002301000020
:100050002301000023010000230100002301000010
:100060002301000023010000230100002301000000
:10007000230100002301000023010000B914000047
:100080007112000023010000230100002301000081
:100090004D150000230C0000230100002301000087
:1000A0002301000023010000230100006506000079
:1000B00023010000230100002301000023010000B0
:1000C00023010000230100002301000023010000A0
:1000D0002301000023010000230100002301000090
:1000E0002301000023010000230100002301000080
:1000F000230100002301000023010000C0A500002F
:1001000000000002E0010000E0010002D40900004C
:10011000FEE7FEE7FEE7FEE7FEE7FEE7FEE7FEE7B7
:10012000FEE7FEE70B4610B5401A5C1AA24203D95F
:10013000C45843F8044BF8E710BD0346002210B53D
:100140001C1AA14202D943F8042BF9E710BD38B5B7
:100150000F4C104DAC4209D30F4DAC420ED254F8A7
:10016000080B54F8041CFFF7E8FFF6E794E80300D7
:100170000C3454F8042CFFF7D5FFEBE70122074BB2
:100180001A6005F0B1FC06F0ABFC04F069F9FEE77B
:10019000FC0000000801000010010000D8400740EA
:1001A00070B506460024B3889C4206D23568285DA7
:1001B00006F0FEFE28550134F5E770BD70B5054622
:1001C00000248688B44206DA2B68185D06F0B5FC78
:1001D00010B10134F6E7012070BD0023194630B498
:1001E0008588AB4207DA0268D45C0133202CC4BF97
:1001F00054540131F5E730BC00F098B809B1838858
:100200000B600021006806F0BDBEFFFF7FB502460F
:100210006D460A4B03F110062C46186859680833DE
:1002200003C4B3422546F7D10F2ACFBF002004AB49
:10023000D21812F8100C04B070BD00BF5C81000031
:10024000002110B5044601600171417181730822DB
:10025000063006F0D4FC204610BD10B543719DF861
:100260000830016083719DF80C300271C3719DF8F4
:10027000103003729DF8143043729DF81830837269
:100280009DF81C30C3729DF8203003739DF8243014
:10029000437310BD322938BF322110B50446481CC3
:1002A00080B2E08005F0D7FB034AE3881168206044
:1002B0000B44136010BD00BFE001000210B50446FE
:1002C000FFF7E8FF0023226820461370A38010BDCB
:1002D00038B5044608460D4606F0CEFDA08081B232
:1002E0002046FFF7D7FF2946206806F0BDFD2046CF
:1002F00038BD38B504460D4689888180FFF7CAFFAE
:100300002968206806F0B0FD204638BD10B50446C7
:10031000006808B105F0A3FB034AE1881368204692
:100320005B1A136010BD00BFE001000283888B429E
:1003300081BF0022036881805A547047C38870B51A
:100340008B4204460D460DD2084605F084FBA28878
:100350002168064606F02EFC206808B105F07FFBF8
:100360002660E58070BD838870B58B4205460C46DB
:10037000164604D9A98000222B681A5570BDFDD2FB
:100380000131FFF7DBFFAB882868E21A31461844D9
:1003900006F035FCAC80A4B2EDE770B50446084623
:1003A0000E4606F069FD0546A1880144013120464C
:1003B000FFF7C4FFA38820683146184406F054FDB7
:1003C000A38820461D44A58070BD70B505460E4625
:1003D00014468188531C1944FFF7B0FFAB88286886
:1003E00022463146184406F0E5FB0022AB88284639
:1003F0001C442B68A4B2AC801A5570BD8A88096869
:10040000FFF7E3BFFFF7C9BF38B504460D46818843
:100410000231FFF793FF0021A38822682046D554BC
:10042000A388226801339BB2A380D15438BDF8B5AC
:100430001D468B880F4693428CBF16460026044605
:10044000AB4238BF9D1B691CFFF738FF39682A464D
:1004500031442046FFF7B9FF04E02046FFF756FF7E
:1004600007F0E7F82046F8BD38B50C460546898800
:100470000131FFF763FFA28821680132286806F086
:1004800099FBA3882846AB8038BD70B50446084662
:100490000E4606F0F1FC0546411C2046FFF74EFFD4
:1004A0003146206806F0E0FCA580204670BD08B506
:1004B000006806F0CFFCB0FA80F0400908BD08B52E
:1004C000006806F0C7FC003018BF012008BD70B5F9
:1004D0001546044608460E4606F0CEFCA98801449F
:1004E00001312046FFF7EAFE31462046FFF78AFF3A
:1004F00029462046FFF782FF04E02046FFF706FF6B
:1005000007F097F8204670BD274B2DE9F041D3F84E
:10051000C420264942F00062C3F8C4205A6C244D1E
:1005200042F000625A645A6C4FF0804022F0006240
:100530005A64D1F8C0211F4F22F48062C1F8C02153
:10054000D3F808221C4922F48062C3F808222B68E1
:100550001A4C1B6A1A4E5B6898473B6830602360F0
:10056000184B214663602B681B6A9B6898473B6861
:100570004FF480622360144BA26163600023A36088
:10058000E3602361636123626362A362E3622363C6
:100590006363A3630B23E3632B6821461B6A306804
:1005A000DB68BDE8F0411847004007400080034089
:1005B000000200030000000224020002E401000225
:1005C0004403000220A10700001BB700002310B560
:1005D0008EB001930293059309930C93074B084A3D
:1005E0001B68084C04921B6A074A00941B69694601
:1005F00010689847A06A0EB010BD00BF000200034B
:10060000E401000214030002440300027047FFFFEC
:100610009022054B01305A6241F208429A631862F7
:100620001A6A1204FCD4704700000F4010B504464B
:1006300001F030F801F058F80120034BA0401A688F
:100640001043186010BD00BF4C030002002208B523
:10065000034B1A7001F01EF8BDE8084001F03AB8EB
:1006600050030002034B044A1B6810689B689B6898
:10067000184700BF000200035403000208B5184BDE
:100680000921D3F8C82042F08002C3F8C8209A6C30
:1006900042F080029A649A6C22F080029A640022EE
:1006A000104600F0CBFB00221221104600F0C6FBE2
:1006B00000220921104600F095FB012212210020A2
:1006C00000F090FB074A936923F47F0323F47F43F0
:1006D0009361936943F4112343F40073936108BD5C
:1006E00000400740008003404FF0FF334FF00062AE
:1006F0000360034B1A600022024B1A60704700BF70
:1007000000E100E04C03000210B5094C2378BFF370
:100710005B8FDB0709D4204607F0CBF828B10548EA
:10072000FFF7E2FF204607F0D3F8024810BD00BFF4
:10073000480300026C030002F0B503688DB08B42E1
:1007400006460D4629D041F64B4242F6C5330129F3
:1007500018BF134601220193114B03AC00270292EC
:1007600093E8070084E80700182239460DEB0200E1
:10077000009706F044FA0B4BCDF820D006930A4BB5
:1007800009940793094B06A91B6809489B685B6895
:10079000984708B130BFFDE735600DB0F0BD00BF30
:1007A0006C8100007003000200000F400002000393
:1007B000540300020A7938B5002A14BF4FF00052E2
:1007C00000220B680025134308220D4C063165609A
:1007D000236011F8013CA018237406F0EBF9012303
:1007E0006574084D084A2B70084B21461B68106839
:1007F0009B685B6998472B78002BFCD1012038BDA2
:1008000058030002500300025403000200020003D8
:1008100030B587B08DF815301C469DF8283002920F
:10082000002B14BF4FF000500020094B094A1B68F1
:1008300001439B689DF82C500191DB6801A9106869
:10084000984715B92046FFF7E3FE07B030BD00BF5B
:1008500000020003540300022DE9F34105460E4651
:100860001746984601240B2CE3B212D0A3F10A01DB
:100870004A424A410192CDF800803A463146284624
:10088000FFF7C6FF0A2C02D02046FFF7C1FE013455
:10089000E9E7012002B0BDE8F0816FF0604201237A
:1008A0001146FFF7D9BFFFFFF0B5012400250A4E1E
:1008B0000A4F87B08DF815408DF814503B680195AC
:1008C0009B6801A91B69306801349847202CF1D13D
:1008D000034B1D6007B0F0BD54030002000200038B
:1008E0004C03000237B5069D6C1E042C08D8012469
:1008F0008DE81800EBB2FFF78BFF204603B030BD48
:100900000020FBE74FF0FF3370B586B00193002362
:100910008DF8143001231E461C4A0C46116806FA55
:1009200003F511EA05002CD08DF81530184B11682D
:100930001B6821EA050111609B68164A1B6901A921
:1009400010689847019BA51D23F0604222609DF826
:100950001420C3F3407323716271002108222846DA
:1009600006F04DF99DF8142003A9284606F022F957
:1009700001989DF81530013018BF0120A37306B00F
:1009800070BD0133202BCAD1F9E700BF4C03000230
:100990000002000354030002024B1868003018BF25
:1009A000012070474C030002094B9A6959B922F49F
:1009B0007F0222F47F429A619A6942F4112242F442
:1009C00000729A61704742F47F0242F47F42F8E776
:1009D000008003400A460020122100F017BA0921C6
:1009E000002000F021BAFFFF074B1A6839B142F02E
:1009F00080021A605A6942F008025A61704722F078
:100A000080021A60704700BF00000F4010B5044616
:100A100000F54370FFF77AFC204610BD10B5322177
:100A2000044600F54370FFF749FC0023204684F894
:100A30001833A4F81433A4F81633C4F81C3384F81C
:100A4000203384F8213310BD08B50D480378BFF377
:100A50005B8FDB070DD406F02CFF50B10948FFF780
:100A6000DDFF074806F034FF074A0849054804F04F
:100A7000F8FF044808BD024806F027FF06F0D9FD3C
:100A80006005000264050002DC0100020D0A00009E
:100A900008B5144B0E21D3F8C82042F40032C3F835
:100AA000C8209A6C42F400329A649A6C22F40032A4
:100AB0009A640122C3F8D0200022104600F0BEF94B
:100AC00000220F21104600F0B9F9074A13681B0CE9
:100AD0001B041360136843F4606343F00F03136057
:100AE00008BD00BF00400740008003402DE9F043EF
:100AF0004FF40017DFF85080104ED8F80030104C3B
:100B00005B6A8FB08946C6F8807004A95B6820468E
:100B100098470023012503930A4B8DF80C501B685E
:100B2000CDF808900193D8F8003001A95B6A9B6862
:100B300098473760E5600FB0BDE8F08300E100E062
:100B4000000004400000000200020003B0F814336B
:100B5000B0F816239A42074B08DA9968490707D577
:100B6000511CA0F81613825CDA61704704221A61E6
:100B7000704700BF000004400B4B10B59A68044654
:100B8000D2070FD5D4F81C23586994F820332AB122
:100B900023B9C0B2904784F8180310BD13B10123E4
:100BA00084F8213310BD00BF0000044038B5084C64
:100BB0000546E268520701D5FFF7C8FFE368DB0787
:100BC00004D52846BDE83840FFF7D6BF38BD00BF82
:100BD00000000440024B9A685207FCD5D961704767
:100BE0000000044010B5084CE36813F00403FBD187
:100BF000A0F816338A880968A0F8142305F0DAFFF4
:100C00000423E36010BD00BF0000044031B10123A4
:100C100080F82033002380F82133704780F82013B8
:100C2000F8E708B5FFF710FF28B1FFF70DFFBDE8A3
:100C30000840FFF7BBBF08BD054A536823F47F0394
:100C400023F47F435360536843F4E12353607047B8
:100C50000080034010B5074C2378BFF35B8FDB07A0
:100C600006D4204606F025FE10B1204606F030FEE0
:100C7000014810BD880800028C08000230B58FB012
:100C80000D46FFF7D9FF4FF480020D4C0D4B04A920
:100C9000C3F8802023680C485B6A5B689847002390
:100CA000039301238DF80C30084B02951B6801A9B2
:100CB000019323685B6A9B6898470FB030BD00BF03
:100CC0000002000300E100E00040044000000002D8
:100CD000024B9A685207FCD5D96170470040044026
:100CE000024B986800F00100704700BF00400440CC
:100CF000014B5869C0B27047004004400E4B10B51C
:100D00001A684FF47A73B2FBF3F314225A430B4B75
:100D10005A6000229A6005221A60094A906810F011
:100D2000010003D11C68E403F8D510BD5069C0B2BE
:100D3000431A5842584110BD0000000210E000E084
:100D40000040044009B9FFF777BF044A536843F4F1
:100D50007F0343F47F435360704700BF008003402C
:100D60000A460020082100F051B8FFFF002210B50C
:100D70001046072100F062F84FF48062082100203D
:100D800000F05CF8002201241046072100F02AF848
:100D900008210122002000F025F80C4BD3F8C820D0
:100DA00042F48022C3F8C8209A6C42F480229A64EC
:100DB0009A6C22F480229A64C3F8D040FFF74AFF6D
:100DC0002146BDE81040FFF7CBBF00BF0040074001
:100DD0000721002000F028B8014B5B69704700BF75
:100DE00000400440800000F1E05000F5005032B1B6
:100DF0000123026803FA01F11143016070470122E7
:100E0000036802FA01F123EA0101F6E7012310B5B4
:100E10008B404FF0E05422B100F5086044F82030D8
:100E200010BD00F50A60F9E74FF0E05300F50460EB
:100E300053F82000C84000F001007047024B01EB5E
:100E4000401143F82120704700800F4008B501226F
:100E500005210020FFF7C6FF012205210020FFF732
:100E6000D5FF424B4248D3F8C82042F00402C3F8F1
:100E7000C8209A6C42F004029A649A6C22F0040230
:100E80009A640022A3F5C0231A603A4B1A653A4AC5
:100E9000D16921F47F41D161D16941F48071D1617F
:100EA000D16921F47F01D161D16941F4E811D161A7
:100EB00040F601621A604FF004125A602F4A5968D6
:100EC0001268B2FBF0F2013A41EA42125A6006227D
:100ED000DA644FF4A042C3F804234FF4C842C3F8C5
:100EE0000C234FF4D042C3F814234DF20302C3F88D
:100EF0001C23D3F8042542F00802C3F80425204A35
:100F0000C3F82423D3F8002542F01002C3F80025CB
:100F10001C4AC3F82C23D3F8042542F02002C3F85E
:100F20000425D3F80C2542F02002C3F80C25164AFC
:100F3000C3F83423D3F8002542F04002C3F800255B
:100F4000D3F8082542F04002C3F808250222C3F86E
:100F500004220422C3F808227E229A600722C3F8E2
:100F6000F0204FF48032094B1A6008BD0040074062
:100F700040420F000080011C00800340000000027E
:100F80000350010005D001000650020000E100E01E
:100F9000044B5A6842F004025A60C3F80011C3F8C7
:100FA000001270470080011C10B5074C2378BFF376
:100FB0005B8FDB0706D4204606F07BFC10B1204691
:100FC00006F086FC014810BD90080002A00800024F
:100FD0000B4B5A6842F004025A6000221A655A64A8
:100FE000C3F80023C3F80823C3F81023C3F8182359
:100FF000C3F82023C3F82823C3F83023704700BF69
:101000000080011C38B5144B15465868134C40F04D
:1010100004005860002018645864C3F80011C3F835
:1010200000120121C3F80003C3F80813C3F810131A
:10103000596821F004015960207023785B0707D4B8
:10104000284600F0E9F90028F7D04FF0FF3038BD0E
:10105000034B186838BD00BF0080011C98080002CF
:101060009408000201220A4BC3F80023C3F80823A6
:10107000C3F810230022074B1A701A785207FCD0CD
:101080001B78DB075ABF044B18680020704700BF6D
:101090000080011C98080002940800021A48F8B564
:1010A00044681F4644F0040444600123002404649F
:1010B0004464C0F80043C0F80843C0F810334468E3
:1010C0000E4624F00404446015460446384600F0F9
:1010D000A3F988B9A36CD807F8D4A36CD907F5D4C1
:1010E000226CB242F9D9084B1A6CAA4202D2996C0E
:1010F000CA07F9D5012000E00020034A536843F0F5
:1011000004035360F8BD00BF0080011C0F4B042096
:101110005A6842F004025A600022C3F80023C3F860
:101120000823C3F81023C3F818030220C3F82003D0
:101130001A6401225864C3F80C11C3F80C121A6522
:101140005A6822F004025A60704700BF0080011CF8
:10115000054B82B0C3F80C125A6C0192596C019A7B
:101160009142FBD002B070470080011C10B54FF0D7
:10117000FF31FFF7EDFFBDE81040FFF729BFFFFF8C
:10118000114B01215A6842F004025A6000221A648D
:10119000C3F80013C3F80813C3F81013C3F82823C7
:1011A000C3F83023596821F004015960074B0849FE
:1011B0001A700A601A7812F0050FFBD01B78DB0753
:1011C00054BF0868002070470080011C9808000286
:1011D0009C080002164B82B05A68013912F0040FC5
:1011E0001A461BD000221020C3F80023C3F808239E
:1011F000C3F81023C3F828030820C3F830031A6487
:1012000004225A640322C3F81411C3F814121A6595
:101210005A6822F004025A6002B07047C3F81412F0
:101220005B6C0193516C019B9942FBD0F4E700BFCA
:101230000080011C064B0139C3F818125A6C82B0A9
:101240000192596C019A9142FBD002B0704700BFE5
:101250000080011C38B504461546FFF7BBFF294640
:101260002046BDE83840FFF7E5BFFFF7B1BEFFFFFE
:101270001B4AD2F8F430D9070AD51A48017841F050
:1012800001010170D2F8F41041F00101C2F8F4102C
:101290009A070FD5124A1449D2F804010860114880
:1012A000017841F002010170D2F8F41041F002011E
:1012B000C2F8F4105B0712D5094B0B4AD3F808119A
:1012C00011601168094A116006490A7842F0040267
:1012D0000A70D3F8F42042F00402C3F8F4207047F7
:1012E0000080011C98080002940800029C0800027B
:1012F000024B986C00F00100704700BF0080011C99
:10130000084B5A6842F004025A60027822B1003158
:1013100018BF012119657047002914BF032200225C
:101320001A6570470080011C10B50A460170084C10
:1013300039B1012205210020FFF768FD0023236059
:1013400010BD05211046FFF761FD0123F7E700BF3F
:10135000004001403A23F0B58DB003AE079331460B
:1013600007A8204B9847049B1E210093059B07A8C4
:101370000193069B00240293FEF7A0FF03255DF86E
:1013800024300393775D3809FEF740FF014607A834
:10139000FFF73AF807F00F00FEF738FF014607A8FD
:1013A000FFF732F815F1FF35ECD22D2107A8FFF732
:1013B0002BF80134032CE1D1BDF8201007A8013926
:1013C000FEF7B4FF04E007A8FEF7A0FF06F031F92E
:1013D00007A803F05FFA07A8FEF798FF0DB0F0BD6D
:1013E000F1E700BF050200030021034B08461B681C
:1013F000DB689B68184700BF00020003054B1B68B1
:101400005943036841F00041DA6842F00102DA60B2
:1014100019607047B40800020368D86880F00200C1
:10142000C0F340007047FFFF026813685068044A29
:1014300023F07F431B1A1068B3FBF0F0704700BF26
:10144000B408000238B5164C05462378BFF35B8F0D
:10145000DA070BD4204606F02CFA38B1114B124AA9
:101460002046136002229A6006F032FA0F4C23786D
:10147000BFF35B8FDB070BD4204606F01AFA38B1B6
:101480000B4B0C4A2046136002229A6006F020FAA9
:1014900025B1012D074818BF002038BD024838BDCE
:1014A000A408000200000A40B8080002A8080002D0
:1014B00010000A40BC080002024A936803F00703C8
:1014C0009360704700400B400022044B9A605A61C1
:1014D0005A604FF40042024B1A60704700400B40C4
:1014E00000E100E00022064B1868064BA1FB00015A
:1014F0009A60DA61DA600922186019619A607047AF
:10150000B408000200400B40034B986880F00800CC
:10151000C0F3C000704700BF00400B4010B5094C3D
:101520002378BFF35B8FDB0709D4204606F0C1F9AF
:1015300028B10548FFF7C8FF204606F0C9F9024860
:1015400010BD00BFAC080002C0080002074BD3F872
:10155000F820120709D5064A116831B1D3F8F820EE
:1015600042F00802C3F8F8200847704700000A401C
:10157000B00800020022044B1960044B9A634FF438
:101580008012034B1A607047B008000200000A4046
:1015900000E100E00122064B1B685943054B41F076
:1015A00000419A63DA6B42F00102DA631963704713
:1015B000B408000200000A404FF47A72034B1B6823
:1015C000B3FBF2F3024A1360704700BF0000000251
:1015D000B408000208B50D4B1A681AB11868013832
:1015E000186038B10A4B1A687AB118680138186067
:1015F00028B108BD01220B21FFF708FCF2E7012208
:10160000BDE808400D21FFF701BC08BDC808000275
:10161000CC08000208B54FF480620B210020FFF7D0
:101620000DFC4FF480620D210020FFF707FC012222
:101630000B210020FFF7D6FB01220D210020FFF730
:10164000D1FB01220B210020FFF7E0FB01220D213D
:101650000020FFF7DBFB0023024A1360024A1360FD
:1016600008BD00BFC8080002CC08000238B5044617
:10167000012004F0EEF906490546FFF77BFF04E080
:10168000284604F0EAF905F0D4FF2560204638BD6D
:10169000D515000008B50B480378BFF35B8FDB0757
:1016A00008D406F006F928B10748FFF7DFFF054820
:1016B00006F00EF9044808BD024806F006F905F0E8
:1016C000B8FF00BFC4080002D00800020A21006869
:1016D000FFF760BF0A22034B0D211A60002210465B
:1016E000FFF794BBCC0800020A22034B0B211A60BF
:1016F00000221046FFF78ABBC808000201230371CD
:1017000070470023037170470023037170477047CF
:1017100070477047704770477047002070477047A8
:101720000420704707B509496846FEF7D1FD6846B1
:1017300003F0B0F86846FEF7E9FD03B05DF804FB7E
:101740006846FEF7E3FD05F074FF00BF78810000F6
:1017500007B52E21806802F032FF0B4B0B490028A1
:1017600008BF19466846FEF7B3FD684603F092F8D5
:101770006846FEF7CBFD03B05DF804FB6846FEF754
:10178000C5FD05F056FF00BF6E8500007D8100009D
:1017900070B505460846164602F05AF80368314609
:1017A0001B680446984708B1E368EB6070BD38B524
:1017B0000A460C4602210546FFF7EAFF00281BDC1B
:1017C000224603212846FFF7E3FF002814DC2246C7
:1017D00004212846FFF7DCFF00280DDC2246052106
:1017E0002846FFF7D5FF002806DC22462846BDE83C
:1017F00038400621FFF7CCBF38BDFFFF43682DE915
:10180000F04F102BD4BF002606680446334685B03F
:1018100004EB031292F80D90B9F1000F14D10F2BC5
:101820000CBF4B4601339E42F2D10527BB1D32212E
:1018300002A801933546FEF741FD07F1030B002195
:1018400002A8FEF773FD01E00A27EFE74FEA05184B
:1018500004EB080000234A4602A9806803F016FF43
:101860002022394602A8FEF77EFD04EB08031B7B0D
:1018700002A8002B0CBF52215321FEF7C5FD2022E8
:10188000594602A8FEF76FFDA04498F80E1002A872
:101890003031C9B2FEF7B8FD2022019902A8FEF747
:1018A00062FD05F1010A4FEA0A1802AA082104EBB9
:1018B000080003F0E4FF0F4902A8FEF7A3FD08F1BA
:1018C000FF3002AA0121204403F0D9FF02A802F050
:1018D000E1FF0F2D14BF55460025AE42AFD102A83F
:1018E000FEF714FD05B0BDE8F08F02A8FEF70EFD6F
:1018F00005F09FFEC881000070B504461E460568CD
:101900000B68681C04EB05152060AB600B792A732B
:101910006B734B790822AB73063104EB001005F0B2
:1019200049F9EE7323680F2BC4BF0023236063685B
:101930000133636070BD70474069FFF75FBFFFFF11
:1019400037B5044601210069FFF72EF80021206910
:10195000FFF740F8642003F01DFF2069FFF73FF810
:10196000F0B11C496846FEF7B3FC684602F092FFEE
:101970006846FEF7CBFC012501212069FFF72AF814
:10198000642003F007FF2069FFF729F8012809D038
:1019900011496846FEF79CFC684602F07BFF09E0AF
:1019A0000546E9E74DB90D496846FEF791FC6846E2
:1019B00002F070FF6846FEF7A9FC00212069FEF7DF
:1019C000F3FF03B030BD6846FEF7A0FC05F031FE22
:1019D000F9E7F8E7CE810000E7810000008200000F
:1019E0002DE9F0410646002401F002FF144B347645
:1019F0003360FEF789FE30614FF4847004F029F8FB
:101A000007460460446000F1100500F5887845F849
:101A1000084C05F8044C05F8034C05F8024C05F891
:101A2000014C284608220021103505F0E8F845450C
:101A3000EDD104237761F36074763046BDE8F08120
:101A400028820000F0B500240E46174605468DB0EA
:101A5000027E1299079406940594049403940294C8
:101A60000194009408A8FEF7F8FB3A4631460DF1C0
:101A7000260005F09FF82346012208A96869FFF7B0
:101A80003BFF08A92869FEF795FE0DB0F0BDF7B53C
:101A90001F46036804465B6C0D46164698473B4656
:101AA0000090324629462046FFF7CCFF03B0F0BD38
:101AB00000232DE9F743B2F5805F0646894690463C
:101AC0000093019303DB002003B0BDE8F0834FF4E3
:101AD0007A71806802F090FDC3790546002B33D0FF
:101AE00008F102070821B06802F069FD00B1013F6A
:101AF000EC79231C18BF0123082F7376E3DC1CB19B
:101B000001242B788DF8003033683046DB6A984723
:101B10000B280CBF3D4608250821B068EDB202F045
:101B20004EFD20B102AB234403F8088C0134424639
:101B300049460DEB040005F03DF82B46FAB2694624
:101B40003046FFF7A4FFBFE708F10107CAE72DE918
:101B5000F04114460D461F4602F054FD2B2102F0C1
:101B60002EFD804602F04EFD092102F028FD2A7963
:101B700006462146286803F0E6FDB8F1000F0CD0B8
:101B800020212046FEF740FC76B1697920463031AD
:101B9000C9B2FEF739FC202103E02EB1697930315A
:101BA000C9B22046FEF730FC22463946A81DBDE8E2
:101BB000F04103F064BE2DE9F34105460C4668464A
:101BC0003221FEF77BFB6B7E1821002B14BF02270E
:101BD000012707F1FF3804EB0803A8689E7902F09B
:101BE000EEFC48B1BB196A4621462846FFF7AFFF15
:101BF000684602F04FFE0FE00821A86802F0DFFC03
:101C000006346A4620B13146E01903F038FEEFE7AA
:101C1000711C04EB0800F8E76846FEF777FB02B09A
:101C2000BDE8F0816846FEF771FB05F002FDFFFF9D
:101C30002DE9F047814686B00D4602A83221FEF715
:101C40003DFB99F819301821002B0CBF0126022604
:101C500006F1FF3A05EB0A039C79D9F8080005EB79
:101C600006030CBF0627052793F8068002F0A7FCA1
:101C700038B1082329460DEB03024846FFF767FFFA
:101C800029E00821D9F8080002F099FC0635E8B1EE
:101C9000220202F47062194942EA080201A805F022
:101CA000B5F801A904A8FEF713FB04A802F0F2FDA1
:101CB00004A8FEF72BFB124902A8FEF7E6FB394603
:101CC000701C02AA284403F0DAFD04E002AAB91C41
:101CD00005EB0A00F7E702A802F0DCFD02A8FEF718
:101CE00015FB06B0BDE8F08704A8FEF70FFB02A8BD
:101CF000FEF70CFB05F09DFCF9E700BF1682000023
:101D00001B8200002DE9FF4106460C4602A8322145
:101D10009046FEF7D3FA737E1821002BB0680BBFF4
:101D2000012502250727062702F049FC38B10823C0
:101D300021460DEB03023046FFF709FF1AE00821A8
:101D4000B06802F03CFC063478B1114908F00F028B
:101D500001A805F05BF801A902A8FEF796FB394639
:101D600002AA601903F08BFD04E0681E02AA791C28
:101D70002044F7E702A802F08DFD02A8FEF7C6FA9C
:101D800004B0BDE8F08102A8FEF7C0FA05F051FCEE
:101D900011820000437E1944CB797F2B05D1487A0C
:101DA000A0F178035842584170470020704708B5A9
:101DB00003F0F6FDBDE8084003F022BE2DE9F04F28
:101DC00089B0039204460F46FFF7F1FF04AD01907E
:101DD0002846FEF735FA4FF47A71A06802F00CFC41
:101DE000C3790020003318BF01236376FFF72AFB75
:101DF000002601998046B246FFF700FBB346B14684
:101E00002069FEF7C9FD029088B329462069FEF7D4
:101E100079FD03F0C5FD83464046FFF705FB01460B
:101E2000584603F0FCFD294660699DF81E300022EB
:101E3000FFF762FD29462046FFF7ACFF68B3B9F112
:101E4000640F2ADC41F288314046FFF7D7FA09F1E6
:101E5000010926E09DF816302BE02368294620462C
:101E60009B6C984729462046FFF7E2FEBB4640465A
:101E7000FFF7D2FA10B9039B9E42C1D3584609B06E
:101E8000BDE8F08F0AF1010A524629462046FFF7C5
:101E900039FFEBE7DDF808B0E9E701994046FFF7C5
:101EA000ADFA0136002FF5D0637E002BD2D09DF81D
:101EB00017301B09012BD0D001D3022BE2D02946C9
:101EC0002046FFF778FED1E7F8B504460E461746E0
:101ED00000691D46FEF7E8FC3A4631462046FFF70A
:101EE000E7FD48B12A4601212046FFF767FF002899
:101EF00014BF07200420F8BD0320F8BD2DE9F041F0
:101F000003688CB05B6C04460F469847002301259C
:101F100007930693059304930393029302230146C8
:101F2000227E8DE8280008A80823FEF796F923688A
:101F30002046DB69E56098470621A06802F03FFB78
:101F40000646B8B92069FEF7AFFC08A92069FEF77C
:101F500031FC804633462A4608A96069FFF7CCFC6D
:101F6000B8F1000F0FD04FF0FF3239462046FFF78F
:101F700025FF40B1237E25711BB107200CB0BDE8C1
:101F8000F0810620FAE7236820461B6A984704235D
:101F90000020E360F2E706207047FFFF37B50446F4
:101FA0002E21806802F00BFB23680546DB6A204681
:101FB00098470B280BD00C4B0C49002D08BF194635
:101FC0006846FEF785F9684602F064FC01E00849BE
:101FD000F6E76846FEF79AF903B030BD6846FEF7AB
:101FE00095F905F026FB00BF8D8200008782000076
:101FF0007482000037B504462E21806802F0DFFAB3
:1020000023680546DB6A204698470B280BD00C4B0B
:102010000C49002D08BF19466846FEF759F9684675
:1020200002F038FC01E00849F6E76846FEF76EF971
:1020300003B030BD6846FEF769F905F0FAFA00BF53
:10204000A7820000A68200009E8E000010B5044604
:1020500001210069FEF770FB236820465B6B9847FF
:10206000FFF718FBFFF732FB03F09AFC00234360F5
:10207000836010BDC379042B0CD18378C1780278BA
:10208000002061F3070063F30F2063F3174062F34E
:102090001F607047022B03BF4378007843EA00209B
:1020A0000020704708B540F2EE31806802F0A4FAD3
:1020B000C37923B1FFF7DEFFC0F30A0008BD40F289
:1020C000DF7008BD70B54FF47B710446806802F084
:1020D00093FAC379ABB1FFF7CDFFC0F30A0540F225
:1020E000E931A06802F088FAC3796BB1FFF7C2FF4B
:1020F000C0F30A012A4620690023BDE87040FEF7BC
:10210000ABBB4FF4FF65EAE74FF4FD61F2E72DE961
:10211000F04104468CB0884680680A2102F04FFAEC
:1021200000284AD06521A06802F059FA40F2EB314C
:102130000646A06802F060FA40F2EA310746A0685D
:1021400002F05AFA00223023079206920592049276
:102150000392029201920093054608234FF4FC611A
:1021600008A8FEF77AF8D8F80020089B02F00702CA
:102170001343012E089314D12FB13846FFF77AFF8D
:10218000C0F30A00089075B1082200210DF1260065
:1021900004F035FDEA7929460DF1260004F00AFD28
:1021A00001E0002EEFDC08A92069FEF703FB002305
:1021B000012208A96069FFF79FFB0CB0BDE8F08120
:1021C0000720704707B52E21806802F0F8F90B4B05
:1021D0000B49002808BF19466846FEF779F868469B
:1021E00002F058FB6846FEF791F803B05DF804FB77
:1021F0006846FEF78BF805F01CFA00BF0683000066
:102200000083000007B52E21806802F0D8F90B4B3F
:102210000B49002808BF19466846FEF759F868467A
:1022200002F038FB6846FEF771F803B05DF804FB76
:102230006846FEF76BF805F0FCF900BF208300004C
:102240001F83000070B5302300240E4605468CB075
:1022500000930794069405940494039402940194C3
:10226000082301220A4908A8FDF7F7FF3368089AF6
:102270001B029BB2134308A928690893FEF79AFA38
:102280002346012208A96869FFF736FB0CB070BD30
:10229000F100DA1810B5044601210069FEF74CFA86
:1022A000236820465B6B9847FFF7F4F9FFF70EFAB7
:1022B00003F076FB00234360836010BD38B540F225
:1022C000EE310546806802F097F9C379094C13B1E5
:1022D000FFF7D0FE044640F2ED31A86802F08CF919
:1022E000C37923B1037803F01F0363F31F6420460F
:1022F00038BD00BFF133DB1870B54FF47B71044675
:10230000806802F079F9C379ABB1FFF7B3FE20F032
:10231000604540F2E931A06802F06EF9C37963B11B
:10232000FFF7A8FE20F060412A4620690123BDE89E
:102330007040FEF791BA024DEBE70249F4E700BFA7
:1023400000FFFF1F00F1DA18406970470023037196
:10235000704703689B6918474161704708B542F6AA
:10236000A001C069FEF78AFC03F01AFB002343605A
:10237000836008BD13B504462E21806802F01FF962
:102380006369042B0FD0052B19D0032B25D1174BD4
:102390001749002808BF19466846FDF799FF6846A7
:1023A00002F078FA16E0134B1349002808BF1946CB
:1023B0006846FDF78DFF684602F06CFA0AE00F4BA5
:1023C0000F49002808BF19466846FDF781FF684697
:1023D00002F060FA6846FDF799FF02B010BD68464A
:1023E000FDF794FF05F025F9F9E7F8E7ED83000024
:1023F000E7830000FE830000F88300001C840000D7
:102400001684000013B504462E21806802F0D7F828
:102410006369042B0FD0052B19D0032B23D11C4B40
:102420001C49002808BF19466846FDF751FF684659
:1024300002F030FA1EE0184B1849002808BF194670
:102440006846FDF745FF684602F024FA12E0144B97
:102450001449002808BF19466846FDF739FF684649
:1024600002F018FA06E010496846FDF731FF6846A9
:1024700002F010FA6846FDF749FF02B010BD684649
:10248000FDF744FF05F0D5F8F9E7F8E7F7E700BFF7
:10249000048E00003384000037840000368400007E
:1024A0003A840000398400003C84000037B50446BB
:1024B0000121C069FEF746FC0121E069FEF750FCEE
:1024C000012003F051F9E069FEF782FC012805467E
:1024D00007D01B496846FDF7FBFE684602F0DAF9B3
:1024E00019E00021E069FEF73BFC284603F03CF9C7
:1024F000E069FEF76DFC38B912496846FDF7E8FE61
:10250000684602F0C7F906E00F496846FDF7E0FEAD
:10251000684602F0BFF96846FDF7F8FEE069002161
:10252000FEF71EFC0021E069FEF70CFC03B030BD95
:102530006846FDF7EBFE05F07CF8F9E7F8E700BF29
:102540008C830000AC830000C783000013B50446F1
:1025500032216846FDF7B2FE694604F1110003F02E
:1025600031F9684602F096F96846FDF7CFFE02B0F1
:1025700010BD6846FDF7CAFE05F05BF810B50446CD
:10258000606AFEF749FF0028FAD010BD10B5044676
:1025900001F02EF9084B236000236361FEF75AFB1C
:1025A000E061FEF7BBFF20620120FEF74BFF042332
:1025B0006062E360204610BD488400002DE9F041D0
:1025C000074608460D46904601F004FA00220D2108
:1025D0001046FEF71BFC00246B899C421BDA6B68DB
:1025E000F869195DFEF774FB6B68F869195DFEF711
:1025F00085FB064630B901220D21FEF707FC304667
:10260000BDE8F0816B89013B9C4202DA404603F051
:10261000ABF80134E0E701220D210020FEF7F6FBC4
:102620000126ECE72DE9F04700249A464C81074645
:1026300001200D469146DDF82080FEF703FF51464C
:102640000646FEF7DBFE4C4508DAF869FEF748FB64
:1026500070B93046FEF7E0FE0028F6D000200122D7
:102660000B21FEF7D3FB2846BDE8F04701F0B2B9D5
:10267000F869FEF73DFB6B896A68591C6981D05483
:102680004CB903F08DF982463046FEF7CDFE014687
:10269000504603F0C4F900220B211046FEF7B6FBAA
:1026A00041463046FEF7AAFE0134CCE7002270B561
:1026B00005460A2610460D21FEF7A8FB0121E86910
:1026C000FEF740FB2C7E640044F4007404F001012A
:1026D000E869FEF745FBC82003F046F8013E4FEAE3
:1026E0005404F3D101220D213046FEF78FFBE86937
:1026F000FEF76EFB04463146E869FEF723FB201C1B
:1027000018BF012070BD002238B504460D211046C7
:10271000FEF77CFBE0690121FEF714FB0021E06974
:10272000FEF71EFB192003F01FF80121E069FEF7F8
:1027300017FB192003F018F801220D210020FEF7E5
:1027400065FBE069FEF744FB05460021E069FEF702
:10275000F9FA281C18BF012038BD0B7A10B5022BDE
:102760000C460DD10B6808465B69984763681A5C94
:102770007F2A05D103449B78782B01D1012010BD1D
:10278000002010BD08B503F00BF9BDE8084003F0C8
:1027900037B908B50321806801F011FF002814BF84
:1027A00013200D2008BD10B520210446806801F0DB
:1027B00006FF68212074A06801F011FF002808BFFF
:1027C0003320207610BD08B56F21806801F007FF27
:1027D0001423584308BD10B50446FFF7F4FF014623
:1027E00010B1206AFEF77EFE606A3721BDE8104016
:1027F000FEF704BE10B50446FFF7E5FF23792BB1C1
:1028000020B1206ABDE81040FEF77EBE002010BD5A
:1028100010B50446006810B103685B68984720460D
:1028200010BDFFFF2DE9F04104468CB001200D469C
:1028300002F0BAFE00230CAF47F8240D23714DB10E
:10284000614904A8FDF744FD04A801F001FE04A8B5
:10285000FDF75CFD2046FFF729FF38B90B24384609
:10286000FFF7D6FF20460CB0BDE8F081E069FEF727
:10287000B3FA4DB1554906A8FDF72AFD06A801F0A7
:10288000E7FD06A8FDF742FD1423032200930399F8
:102890004FF496732046FFF7C5FE039B5A89002A22
:1028A0007ED0032A01D00324D9E75B681A78552A21
:1028B000F9D15E78667493F8028084F812804DB185
:1028C000424908A8FDF704FD08A801F0C1FD08A8C9
:1028D000FDF71CFD212002F047FF039B20465A68AC
:1028E0009378DB4313700123039907224B81FFF791
:1028F00065FE0028B2D014230122009303993223ED
:102900002046FFF78FFE039A5389002B48D0012BF6
:10291000C9D1237E5268DB431278DBB29A42C2D11E
:102920004DB12A490AA8FDF7D3FC0AA801F090FD91
:102930000AA8FDF7EBFC2E21A06801F040FE237CE5
:102940005BB9032D01D005B120B30123237103230B
:1029500063612046FFF73FFF20E0B8F1080F02D087
:10296000B8F1940F06D1032DEFD0002DEDD0002843
:10297000EBD1EEE7B8F18F0FEBD1012306F00F0694
:1029800003FA06F616F42A4FE3D035F0040301D01B
:102990000028DED0012323710423D9E723790BB962
:1029A00005245CE701245AE704A8FDF7AFFC38468C
:1029B000FFF72EFF04F03DFE06A8F6E708A8F4E7AF
:1029C0000AA8F2E7F3E700BF7F8300008A830000D4
:1029D0002DE9F04387B004460D46FFF7D3FE0646C7
:1029E0002046FFF7D6FE0746022002F0DDFD002359
:1029F000039023714DB13A4904A8FDF769FC04A87E
:102A000001F026FD04A8FDF781FC2046FFF77BFEC0
:102A100040B94FF00B0903A8FFF7FAFE484607B08C
:102A2000BDE8F08301222F49039802F0B5FD039819
:102A300003689B689847E069FEF7CEF9072203997F
:102A40002046FFF7BBFD0028E3D04FF005094FF00B
:102A500014080125CDF8008033463A4603992046F4
:102A6000FFF7E0FD039B5A896AB321790029F1D170
:102A7000042A02DC4FF00309ECE75B681A78F2B134
:102A800012F0C00F1DD012F03F0F14BF032204221A
:102A9000995CC129EED11A44537863749278A27478
:102AA000227C32B103F00F0305FA03F313F42A4F2B
:102AB000E0D00523257163614FF00109CAE70222C6
:102AC000E6E70122E4E72046FFF785FEA3E704A836
:102AD000FDF71CFC03A8FFF79BFE04F0AAFDF9E735
:102AE0007F83000078830000037973B504460BB13F
:102AF000606933E0FFF757FE23682046DB6998479B
:102B00006569BDB1032D03DB042D03DD052D19D04F
:102B1000002604E029462046FFF784FE0646237976
:102B2000F3B1BDB113496846FDF7D2FB684601F029
:102B3000B1FE0CE029462046FFF774FE23790646D5
:102B4000002BECD129462046FFF742FFE6E7684616
:102B5000FDF7DCFB2079E6600028C9D102B070BD2A
:102B6000236820461B6A9847F4E76846FDF7CEFBCA
:102B700004F05FFD7C8300007FB50446FFF73AFE5A
:102B8000002848D02046FFF7FDFD63690546052B68
:102B90000CBF0220012002F007FD40F2F13103904A
:102BA000A06801F029FDC279014652B1039802F0F4
:102BB000F3FC03980368DB689847E069FEF70CF9BB
:102BC0000EE06369032B08D102221649039802F034
:102BD000E3FC039803689B68EEE701221249F5E7DE
:102BE000072203992046FFF7E9FC18B92046FFF7B2
:102BF000F2FD0DE0142600962B464FF482720399E5
:102C00002046FFF70FFD039B5B89002BF3D1EDE717
:102C100003A8FFF7FDFD04B070BD03A8FFF7F8FDA2
:102C200004F007FD798300007B8300002DE9F04F5D
:102C300087B09B4604460D461746FFF7A3FD0646A0
:102C40002046FFF7A6FD4FF44371824604A8FDF726
:102C500035FB6369052B0CBF0220012002F0A4FCA8
:102C6000BAB22946039002F097FC039803689B6868
:102C700098472046FFF782FCE069FEF7ADF807228F
:102C800003992046FFF79AFC8046002845D000258E
:102C9000A9462F465D4537D0142352460093039929
:102CA00033462046FFF7BEFC03994B8963B3042BE0
:102CB00035DD2046FFF751FD00283BD0642F39DC7D
:102CC000013741F2883639E020B104A9039802F0B7
:102CD0005EFC10E0039803681B6998470028F4D154
:102CE0000A2403A8FFF794FD04A8FDF70FFB204674
:102CF00007B0BDE8F08F04A802F0B8FA002104A8DC
:102D0000C146FDF713FBC5E72046FFF764FDB9F1A7
:102D1000000F0CBF04240724E3E70B24E1E703249E
:102D2000DFE703A8FFF774FD04A8FDF7EFFA04F04E
:102D300080FCF9E72046FFF725FD06461821A0682C
:102D4000013501F03CFCBFE770470A20704703687B
:102D500010B5DB690446984701230A20E36023711C
:102D600010BDFFFF07B509496846FDF7B1FA68468F
:102D700001F090FD6846FDF7C9FA03B05DF804FB69
:102D80006846FDF7C3FA04F054FC00BF90840000CD
:102D900007B52E21806801F012FC0B4B0B4900286F
:102DA00008BF19466846FDF793FA684601F072FDC0
:102DB0006846FDF7ABFA03B05DF804FB6846FDF723
:102DC000A5FA04F036FC00BFAF840000AE8400001A
:102DD00008B500210069FDF7AFFCFEF75BFCBDE81C
:102DE0000840FEF773BCFFFF38B540F2EE310546F0
:102DF000806801F001FCC379184C73B1042B24D115
:102E00008378C1780278002061F3070063F30F2014
:102E100063F3174062F31F60044640F2ED31A86887
:102E200001F0EAFBC37923B1037803F01F0363F3D6
:102E30001F6440F2EF31A86801F0DEFBC37913B1E3
:102E4000037863F30704204638BD022B05BF44789E
:102E50000078002044EA0020DEE700BFF9FFEA180E
:102E600003791BB120210068FDF7CEBA7047FFFF40
:102E700038B50446FEF7B4FD094B1020236001234A
:102E8000237602F0E6FD2146054600F01BFA04E039
:102E9000284602F0E2FD04F0CCFBE561204638BD97
:102EA000BC840000082A03DCD3B21A46FEF7EFBD4B
:102EB00000207047F7B50125144F00950C02064617
:102EC0002B463A4621460069FDF70CFD02234FF4DC
:102ED0007F0200934FF468012B463069FDF702FD35
:102EE0000323A4B200933A462B4644F46C013069A4
:102EF000FDF7F8FC04233A46009344F46B012B469B
:102F00003069FDF7EFFC03B0F0BD00BF00FFFF002C
:102F10001FB5C3690B49DA8801A803F077FF01A93F
:102F200002A8FDF7D5F902A801F0B4FC02A8FDF74C
:102F3000EDF905B05DF804FB02A8FDF7E7F904F030
:102F400078FB00BF16820000F7B5144600920D46CC
:102F500001F058FB2B2101F032FB8DF8040001F049
:102F600051FB1E2101F02BFB002853D02868C0F331
:102F70008260FDF74BF901462046FDF745FA6846A9
:102F8000FFF76EFF2E68360AC6F31107380CFDF7FF
:102F90003DF901462046FDF737FAC7F30330FDF748
:102FA00035F901462046FDF72FFAC7F30320FDF758
:102FB0002DF901462046FDF727FAC7F30310FDF768
:102FC00025F901462046FDF71FFA06F00F00FDF730
:102FD0001DF901462046FDF717FA6846FFF740FF46
:102FE0002E783009FDF712F901462046FDF70CFA5C
:102FF00006F00F00FDF70AF901462046FDF704FA36
:103000006846FFF72DFF22466979A81D02F037FCBC
:1030100003B0F0BD01222146286802F094FBEFE7DF
:1030200037B505460C4668463221FDF747F91821A9
:10303000A86801F0C4FA6A4638B121462846FFF76D
:1030400083FF684601F026FC04E06179A01D02F0D0
:1030500016FCF6E76846FDF759F903B030BD68463F
:10306000FDF754F904F0E5FA30B5054685B00C4695
:1030700002A83221FDF722F91821A86801F09FFA71
:1030800028B102AA21462846FFF75EFF0EE00E494E
:10309000A279684603F0BAFE694602A8FDF7F5F981
:1030A000617902AA0139E01D02F0E9FB02A801F0F2
:1030B000F1FB02A8FDF72AF905B030BD02A8FDF723
:1030C00025F904F0B6FA00BFA784000010B501F09E
:1030D00099FA6D2101F083FA044601F093FA0E216A
:1030E00001F06DFA002814BF0520012014B1A400DE
:1030F000604310BD40F2DC5010BDF0B585B0044611
:10310000FFF7E4FF07466846FDF79AF80020FEF750
:1031100099F9394606460025FEF770F92069FDF752
:103120003BFC70B369462069FDF7ECFB48B39DF8A2
:103130000E30002269466069FEF7DEFB39463046F4
:10314000FEF75CF9009B69461B0A03F47F43B3F565
:103150006B4F1ED0B3F56C4F0BD0B3F5684F04D155
:10316000E06900F030F960B169462046FFF758FF8A
:1031700006E0E06900F0B2F869462046FFF7C8FEB5
:1031800001353046FEF748F90028C7D0284605B07B
:10319000F0BDE06900F007F969462046FFF764FFDB
:1031A000EEE737B5002304466846154600930193C1
:1031B00003F000FD1D21A06801F001FA18B92946AD
:1031C000684602F0DDFB2069FDF76EFB2A46694682
:1031D0002046FFF767FEC8B19DF801309DF8021048
:1031E0001B0243EA01439DF8001020461943FFF7F4
:1031F00061FE2046FFF781FF0028206914BF0725E4
:103200000425FDF74AFB284603B030BD0325FAE745
:103210002DE9F3410D469046044601F0F3F90D21E6
:1032200001F0CDF9074618B101212069FDF7DCFB5B
:1032300029462046FFF73EFEFDF706FC0121054624
:103240000026FDF7E3FC2046FFF757FF95F82133F2
:1032500013B906444645F6D32069FDF71EFB1FB19E
:1032600000212069FDF7C0FB95F821334BB10B49D4
:103270006846FDF72DF8684601F00CFB6846FDF73F
:1032800045F800212846FDF7C1FC02B0BDE8F081F9
:103290006846FDF73BF804F0CCF900BF88840000D5
:1032A0004FF0FF324FF6CA61FFF7B2BF10B44C784F
:1032B0000A782402897844EA024421431A4610BC61
:1032C000FFF7A6BF002201600271C280C2720273C2
:1032D00042738272427202727047FFFF1FB5B1F8EB
:1032E00007300446C3804B7A03710B680373006890
:1032F00003685B6C98470023637311238DF80830D3
:1033000001238DF80A30FF238DF80B308DF80C3037
:103310002379227B8DF80930237AE0728DF80D3005
:10332000637AC0B28DF80E30A37A8DF80F30074B58
:1033300043EA02231843082300901A460DEB0301C9
:103340002068FEF77FFB04B010BD00BF0000EC1C3E
:103350001FB513228DF80820FF22C3888DF80C209A
:103360008DF809301B0A8DF80A300379027A8DF83E
:103370000B30437A8DF80D208DF80E30837A8DF85E
:103380000F30C37A43F0E75343F4402343EA022368
:103390000093082300681A460DEB0301FEF752FB69
:1033A00005B05DF804FB437B89790133DBB29942B8
:1033B000437304D103798B4203D1FFF7C9BF0020C7
:1033C00070470120704730B5CB7A057A0C7B427A82
:1033D000497BAB4208BF94420CBF01230023807A93
:1033E000814214BF002003F0010030BDCB0713B5AC
:1033F0000FD54A1E012301466846FDF718F8102232
:1034000000216846FCF7FAFE04466846FCF77EFF9A
:103410000CB94FF0FF34204602B010BD6846FCF7EF
:1034200075FF04F006F910B50446012000F010FA0B
:103430002060204610BDFFFF08B50B480378BFF39E
:103440005B8FDB0708D404F034FA28B10748FFF794
:10345000EAFF054804F03CFA044808BD024804F0BD
:1034600034FA04F0E6F800BFD4080002D8080002DD
:10347000006803689B68184700680368DB681847A2
:10348000006803681B69184770B50446154606684E
:103490000B294CD8DFE801F00613181A313B4547D9
:1034A0004B4B4945012000F0D3F92060042000F087
:1034B000CFF9036800215B69984795B90BE00220BA
:1034C00000F0C6F92060F8E70320F9E7042000F0D7
:1034D000BFF920600DB9012070BD032103685B694D
:1034E000984723689E42F6D0336830461B6A984757
:1034F00020680368DB699847EDE7042000F0A8F92D
:103500002060002DE7D0036804215B69E8E7042010
:1035100000F09EF92060002DDDD0036805215B6975
:10352000DEE70520CCE70620CAE70720C8E702202F
:1035300070BD38B505680420144600F089F985424D
:1035400014BF0820092024B1A042B4BF00200120EC
:1035500038BD204638BD00680368DB6A1847FFFFA6
:103560002DE9FF470C46898807461A2962D820466C
:10357000FFF73CFF69468246204602F051F9694652
:10358000814602463846FFF7D4FF002854D03868F9
:10359000037953B103684A465C6869465346A047BD
:1035A0000446204604B0BDE8F08725492046FCF7D4
:1035B0007EFF064630B1FFF73FFFFFF7CCFFB0FAC2
:1035C00080F67609012000F043F93B688046984276
:1035D00013D1036831461B68984705463B68DC6891
:1035E000002DDED0002229463846FFF74DFF16B1E8
:1035F000033D022D22D83868CCE71A68314612689C
:103600001846904705463B68DC6800F0FBFF2E211A
:1036100000F0D5FF002DE5D10028C2D0042CC0D188
:10362000D8F8003031461B6840469847D8F80C401F
:103630000546D5E70224B4E70324B2E70724B0E740
:103640006B85000007B5FFF78BFF023809284ED8BD
:10365000DFE800F0050D151D25572D353D45314995
:103660006846FCF735FE684601F014F946E02E493D
:103670006846FCF72DFE684601F00CF93EE02B4948
:103680006846FCF725FE684601F004F936E0284953
:103690006846FCF71DFE684601F0FCF82EE025495F
:1036A0006846FCF715FE684601F0F4F826E022496A
:1036B0006846FCF70DFE684601F0ECF81EE01F4975
:1036C0006846FCF705FE684601F0E4F816E01C4980
:1036D0006846FCF7FDFD684601F0DCF80EE019498C
:1036E0006846FCF7F5FD684601F0D4F806E0164997
:1036F0006846FCF7EDFD684601F0CCF86846FCF73B
:1037000005FE03B05DF804FB6846FCF7FFFD03F01F
:1037100090FFF9E7F8E7F7E7F6E7F5E7F4E7F3E70F
:10372000F2E7F1E708850000188500002385000016
:103730002B850000318500004C8500005585000078
:103740005F850000438500000A850000006803686B
:103750009B69184708B5042000F07AF803681B6BD2
:103760009847012008BD006803689B6A184710B598
:10377000022000F06DF803685B6A9847032000F0B0
:1037800067F803685B6A9847042000F061F80368F3
:103790005B6A9847052000F05BF8BDE810400368BD
:1037A0005B6A1847006803685B6B1847006803682A
:1037B0009B6B184773B50C46898805460C2915D8AC
:1037C0002046FFF713FE69460646204602F028F819
:1037D0006946044602462846FFF7ABFE30B128682A
:1037E000224603686946DD6B3346A84702B070BDC8
:1037F000064B10B50360002303710423C360044625
:1038000000F000FFA060204610BD00BF94850000BE
:1038100037B500240D4D32216846FCF74FFD6A464E
:103820001021281902F02BF8684601F033F8684699
:103830001034FCF76BFDB4F5807FECD103B030BDE4
:103840006846FCF763FD03F0F4FE00BFFC080002CD
:1038500010B5044647480378BFF35B8FDB0708D4F5
:1038600004F027F828B1444800F0EAFB414804F08E
:103870002FF842480378BFF35B8FD90708D404F0D0
:1038800018F828B13E4800F07DF93C4804F020F8D3
:103890003C480378BFF35B8FDA070DD404F009F8D6
:1038A00050B13948FFF7A4FF374B384A35481A6002
:1038B00000221A7104F00CF835480378BFF35B8FCF
:1038C000DB0708D403F0F5FF28B13248FEF75EFEAF
:1038D0002F4803F0FDFF30480378BFF35B8FD90713
:1038E0000BD403F0E6FF40B12C48FEF779F82C4AE0
:1038F0002A4B29481A6003F0EBFF2A480378BFF3EC
:103900005B8FDA070DD403F0D4FF50B12648FEF7E1
:1039100067F8254B254A23481A6001221A7603F0DE
:10392000D7FF23480378BFF35B8FDB0708D403F08E
:10393000C0FF28B11F48FFF79BFA1D4803F0C8FFDE
:10394000601E06289ABF1C4B53F82000002010BDB3
:10395000084803F0BAFF03F06CFE0848F9E709488D
:10396000F7E70B48F5E70C48F3E70E48F1E7104896
:10397000EFE700BFE8080002580A0002E40800026E
:10398000400A0002EC080002700A00028881000070
:10399000E0080002180A0002DC080002FC0900022C
:1039A000B4820000F4080002A00A00022C83000088
:1039B000F0080002800A0002708500000021034B1D
:1039C0004FF480720248196003F019B9F808000238
:1039D000FC08000238B543890546E3B10E4C236864
:1039E0001033B3F5807F06D900214FF480720B4865
:1039F000216003F004F96A8921680F2AA8BF0F2209
:103A000006484B1C425469681844236003F0D2F8FE
:103A100023680F33236038BDF8080002FC08000259
:103A200010B500210446064B4FF48072054819601A
:103A300003F0E5F82046BDE81040FFF7CBBF00BF1C
:103A4000F8080002FC0800020120704700230371FF
:103A5000704708B500214069FDF766FC01F0A0FF42
:103A600000234360836008BD07B52E21806800F005
:103A7000A6FD0B4B0B49002808BF19466846FCF70A
:103A800027FC684600F006FF6846FCF73FFC03B0E1
:103A90005DF804FB6846FCF739FC03F0CAFD00BF83
:103AA0001D8600001786000007B52E21806800F0F3
:103AB00086FD0B4B0B49002808BF19466846FCF7EA
:103AC00007FC684600F0E6FE6846FCF71FFC03B002
:103AD0005DF804FB6846FCF719FC03F0AAFD00BF83
:103AE000018E00002B86000037B504460368DB69B1
:103AF000984701216069FDF703FC012001F034FEC5
:103B00006069FDF7F5FB0128054607D01A496846AC
:103B1000FCF7DEFB684600F0BDFE19E0002160699D
:103B2000FDF7EEFB284601F01FFE6069FDF7E0FBA4
:103B300038B912496846FCF7CBFB684600F0AAFE8C
:103B400006E00F496846FCF7C3FB684600F0A2FE9A
:103B50006846FCF7DBFB00216069FDF7D1FB2368B9
:103B600020461B6A984703B030BD6846FCF7CEFB81
:103B700003F05FFDF9E7F8E7D4850000ED8500006C
:103B8000FE85000010B50446FFF732FE054B2360AA
:103B9000FDF70AFA60610020FDF754FC2061204621
:103BA00010BD00BF3886000070B506460C460825DB
:103BB000230647BF10220821082210217069FDF753
:103BC00049FB6400013DE4B2F2D1012070BD10B5A3
:103BD00004464069FDF7FCF960691022BDE8104019
:103BE0002021FDF737BB002370B506460C4608259B
:103BF0000B7023785B0023707069FDF7C1FA68B120
:103C0000132809D80C289EBF237843F001032370A2
:103C1000013DEED1012070BD4FF0FF3070BD00239B
:103C200037B5054602AC04F8013D3F214069FDF778
:103C3000AFF921462846FFF7D6FF03B030BD70B577
:103C4000044608460E46FFF7EBFE23696022462134
:103C50006069FDF723FA28B96069FDF7B9F94FF0FB
:103C6000FF3070BD00220D211046FDF7CFF8204631
:103C7000FFF7ADFF00257389AB420CDD736820466A
:103C8000595DFFF791FF20B901220D21FDF7BEF824
:103C9000E2E70135EFE76069FDF7E7FA002001226E
:103CA0000D21FDF7B3F82046BDE87040FFF7B7BF20
:103CB00010B50446226923216069FDF7A3F9431C6E
:103CC00003D01D28F6D9012010BD002010BD10B56D
:103CD00004460F2001F05EFD2046BDE81040F121B2
:103CE000FFF762BFF8B500244C8105460E46174623
:103CF000FFF7DEFF90B30B2120462246FDF786F842
:103D00001B216869FDF744F9A74209DD716828465F
:103D10002144FFF768FF002802D015DB0134F3E7E8
:103D20006869FDF755F92846FFF7D1FF6869FDF787
:103D30004FF901220B2174810020FDF767F830460E
:103D4000FFF748FE0120F8BD6869FDF741F9002042
:103D500001220B21FDF75AF84FF0FF30F8BD08B5EE
:103D600001F01EFEBDE8084001F04ABE2DE9FF4704
:103D70000D461646994604469DF830A0FFF7EFFF22
:103D80003221074602A8FCF799FA032001F00CFC47
:103D9000B2B22946019001F0FFFB019803689B68CD
:103DA0009847019B39465B6820695D78FDF726FBE3
:103DB00001992046FFF743FF421C06D0002863D03C
:103DC00039462069FDF71AFB0AE0082401A8FEF72E
:103DD0001FFD02A8FCF79AFA204604B0BDE8F08760
:103DE0000026B0460135EDB20D2201992046FFF7BD
:103DF00079FF431C4AD0002840D0019A5389053BE3
:103E00009BB2062B34D853685B78AB4230D101F0BB
:103E1000C7FD80462069FDF707FB0146404601F0DB
:103E2000FEFD394620690136FDF7E8FA1821A06841
:103E300000F0C5FB38B1BAF1000F0CD1002102A887
:103E4000FCF774FA12E0019803681B699847002890
:103E5000F1D10A24BAE701984389002BEED002A9D8
:103E600001F095FB02A800F015FDE7E74FF001080F
:103E70002069FDF7D1FA08B94E45B5D3B8F1000F66
:103E800014BF07240424A1E704249FE709249DE725
:103E900001A8FEF7BDFC02A8FCF738FA03F0C9FB45
:103EA000F9E713B501240094FFF760FF02B010BDDD
:103EB0007FB5002301258DF80D3003688DF80C5077
:103EC000DB690E4604469847FFF7B6FAFFF743FB57
:103ED000022803D12846257104B070BD4FF0FF338E
:103EE0000096022203A92046FFF740FF07280CBFD7
:103EF00001230023237103D0236820461B6A9847BF
:103F00002079E9E70220704700230371704708B564
:103F100001214069FDF708FA01F042FD00234360EA
:103F2000836008BD07B52E21806800F048FB0B4B6D
:103F30000B49002808BF19466846FCF7C9F96846CE
:103F400000F0A8FC6846FCF7E1F903B05DF804FB5B
:103F50006846FCF7DBF903F06CFB00BFC18600008C
:103F6000BB86000007B52E21806800F028FB0B4BB4
:103F70000B49002808BF19466846FCF7A9F96846AE
:103F800000F088FC6846FCF7C1F903B05DF804FB5B
:103F90006846FCF7BBF903F04CFB00BFF68300005A
:103FA000CF86000037B504460368DB6998470121D6
:103FB0006069FDF7A5F9012001F0D6FB6069FDF706
:103FC00097F90128054607D01A496846FCF780F999
:103FD000684600F05FFC19E000216069FDF790F988
:103FE000284601F0C1FB6069FDF782F938B9124932
:103FF0006846FCF76DF9684600F04CFC06E00F4996
:104000006846FCF765F9684600F044FC6846FCF732
:104010007DF900216069FDF773F9236820461B6A6A
:10402000984703B030BD6846FCF770F903F001FB18
:10403000F9E7F8E77886000091860000A286000084
:1040400010B50446FFF7D4FB054B2360FCF7ACFF2B
:1040500060610020FDF7F6F92061204610BD00BF29
:10406000DC8600002DE9F041044608468846FFF74B
:10407000D7FC236940F205124FF496716069FDF791
:104080000DF800284CD000220D211046FCF7BEFE92
:10409000C8216069FDF73AF80026B8F80A30B34243
:1040A00035DD0827D8F804309D5D17F1FF372CD394
:1040B00017F0010F6BB21ED0002B16DA6069802159
:1040C000FDF746F8402001F065FB6069FDF710F947
:1040D000C0B16069FCF77CFF01220D210020FCF7D4
:1040E00095FE4FF0FF30BDE8F08160694021FDF79B
:1040F0002FF82020E7E7002BB4BF40218021606922
:10410000FDF726F86D00EDB2CFE70136C5E760692F
:10411000FDF72CF8002001220D21FCF777FE01208D
:10412000BDE8F08110B504462269EF216069FCF713
:1041300069FF431C03D0A228F6D9012010BD00203E
:1041400010BD2DE9F04700244C8107460E469146EC
:10415000D1F80480FFF7E6FF00283BD022460B2170
:104160002046FCF753FE4C451BDA4FF0090A0020AD
:10417000BAF1010A0FD04000C5B27869FCF772FFAE
:1041800078B1A0F12203812B1AD8602894BF284669
:1041900045F00100ECE780F0550008F80400013418
:1041A000E1E77869FCF714FF01220B2174810020FC
:1041B000FCF72CFE3046FFF70DFC0120BDE8F08730
:1041C0007869FCF705FF002001220B21FCF71EFE99
:1041D0004FF0FF30BDE8F08708B501F0E1FBBDE826
:1041E000084001F00DBC2DE9FF470D4616469946E3
:1041F00004469DF830A0FFF7EFFF3221074602A8E2
:10420000FCF75CF8042001F0CFF9B2B22946019026
:1042100001F0C2F9019803689B6898470421A068DF
:1042200000F0CDF948B1019B5B685D780135EDB2D6
:1042300039462069FDF7E2F805E06B21A06800F03F
:10424000CEF9C5B2F4E701992046FFF70BFF013024
:1042500001285BD939462069FDF7D0F80026B04621
:104260000D2201992046FFF76CFF431C42D0002825
:1042700046D0019A5389053B9BB2062B3AD8536826
:104280005B78AB4236D101F08BFB80462069FDF7AD
:10429000CBF80146404601F0C2FB394620690136A1
:1042A000FDF7ACF81821A06800F089F938B1BAF12F
:1042B000000F15D1002102A8FCF738F818E001988A
:1042C00003681B6998470028F1D10A2401A8FEF76A
:1042D0009FFA02A8FCF71AF8204604B0BDE8F08760
:1042E00002A9019801F053F902A800F0D3FAE1E71E
:1042F0004FF001082069FDF78FF808B94E45AFD39C
:10430000B8F1000F14BF07240424DFE70824DDE719
:1043100001A8FEF77DFA02A8FBF7F8FF03F089F980
:10432000F9E713B501240094FFF75DFF02B010BD5B
:104330007FB5002301258DF80D3003688DF80C50F2
:10434000DB690E4604469847FFF776F8FFF703F956
:10435000022802D1257104B070BD4FF0FF330096E2
:10436000022203A92046FFF73EFF07280CBF0123C6
:104370000023237103D0236820461B6A98472379C2
:10438000002B14BF02200020E5E7FFFF38B50446EC
:1043900029480378BFF35B8FDB070ED403F089FA5B
:1043A00058B127212548FBF789FF234803F090FAED
:1043B000234A2449214801F054FB20488388252BB7
:1043C00002D90021FBF7B2FF00F01CF9142100F024
:1043D000F6F830B10A2C12D1204602F0A5FB18B92C
:1043E00038BD0D2CF8D117E021461448FCF70CF825
:1043F000002038BD104803F068FA03F01AF9124D96
:1044000021462868FCF7E6FB0D2CE5D100F0FAF810
:10441000222100F0D4F848B908490C48FCF724F8E8
:1044200000210648FBF782FF012038BD0A212868D9
:10443000FCF7D0FBF0E700BFBC0A0002CC0A000288
:10444000DC0100020D030000C00A0002C40A0002E1
:10445000024B01461868FCF7C5BB00BFC00A00024A
:1044600070B501F001FB2C4B2C4CD3F8C820002573
:1044700042F00102C3F8C8209A6C294E22F00102D2
:104480009A64D3F8C82042F00202C3F8C8209A6C9C
:1044900022F002029A64D3F8C42042F40062C3F806
:1044A000C420D3F8C42042F48052C3F8C420D3F807
:1044B000C42042F40052C3F8C420D3F8C42042F40C
:1044C0008042C3F8C420FCF7E3FAFCF74FFCFCF78A
:1044D000D5F8FDF79FF8FCF7B9FCFCF715F8FCF7E9
:1044E000B3FA4FF4E1312060FCF700FB23680D4A7A
:1044F000C3F81C23FCF778FF00F09CFA236893F8BC
:10450000182332B183F81853304600F0E7F930BF72
:10451000F4E700F0B7F9FAE700400740C00A0002EC
:10452000C40A00028D43000010B5064C2721204626
:10453000FBF7C4FE2046BDE81040034A034901F0E2
:1045400090BA00BFC40A0002DC0100020D030000A3
:10455000F8B50022002304460027C0E9002300F13B
:10456000380500F18806EF7128460722002108353A
:1045700002F045FBAE42F6D13022002104F10800E2
:1045800002F03DFB2046F8BD402970B506460BDC25
:10459000D0E900454AB10A460120002101F006FB9E
:1045A00020432943C6E9000170BD0A4601200021CD
:1045B00001F0FCFA24EA000025EA0101F2E74029B3
:1045C00008B50A4605DC03C801F0E4FA00F0010072
:1045D00008BD0020FAE7623940F8212070476239AF
:1045E00050F8210070476FF47873194400EBC10351
:1045F0001068516803C370476FF47873194400EB77
:10460000C100704710B5094C2378BFF35B8FDB07FF
:1046100009D4204603F04DF928B10548FFF798FF6B
:10462000204603F055F9024810BD00BFD40A00022D
:10463000D80A000237B5002300220446C0E900234F
:1046400000F1380100F1080343F8042B8B42FBD141
:104650006D468DF8072000210722684602F0CFFA48
:104660002346503403F1380208339C4295E8030096
:1046700082E80300F6D103B030BD70472DE9F04F5A
:10468000804685B00F469146B2B10B462C4D0222B2
:1046900041466846FBF7CBFE0024AB46023795F84F
:1046A00008A01AF1000318BF01234B4509D129685E
:1046B0006846FBF7FCFE02E04FF0FF33E6E70646F4
:1046C00068BB0134602C05F11005E8D1002612E02A
:1046D0004FF0FF333A46414602A8FBF7A8FE26E01A
:1046E0006A7A934227DC0BEB0414E36853B91E4645
:1046F00002A8FBF70BFE6846FBF708FE304605B044
:10470000BDE8F08F616802A89847F1E702A8FBF7BF
:10471000FDFD6846FBF7FAFD02F08BFFF9E7B9F102
:10472000000FD5D1074902A8FBF7D2FDDBE7BDF8A2
:104730000C309A45D4DD02A8FBF7E8FDC1E700BFC5
:10474000C08700001E87000010B5FFF75BFF04461E
:10475000FEF772FE01220021FEF796FE2046FFF7CB
:1047600069FF204600221821FFF70EFF2046012294
:104770002221FFF709FF204601221421FFF704FF41
:10478000204601222B21FFF7FFFE204601222E2189
:10479000FFF7FAFE204600222021FFF7F5FE204613
:1047A00000220921FFF7F0FE204601220A21FFF72F
:1047B000EBFE204601220421FFF7E6FE2046002200
:1047C0000E21FFF7E1FE204601220D21FFF7DCFE5E
:1047D000204601221E21FFF7D7FE20463322682102
:1047E000FFF7F9FE204696226F21FFF7F4FE2046E0
:1047F000F1226721FFF7EFFE2046BDE81040F122CD
:104800006721FFF7E8BE10B50446FEF715FE214606
:10481000BDE81040FEF7CEBF08B5FEF70DFEBDE8BF
:104820000840FEF797BF08B5FEF706FEBDE8084052
:10483000FEF722BE08B5FEF7FFFDBDE80840FEF713
:1048400017BE08B5FEF7F8FDBDE80840FEF7AEBF9D
:1048500008B5FEF7F1FDBDE80840FEF711BEFCF714
:1048600079BD08B5FEF7E8FDBDE80840FEF77FBF5B
:104870007047002110B50446C171072202F0BFF94C
:10488000204610BD08B5FEF7D7FDBDE80840FEF78D
:104890006ABFFFFF07B501466846FBF72AFDFFF731
:1048A000B1FE2221FFF78BFE60B10A496846FBF793
:1048B000A9FD6846FFF7CCFD6846FBF727FD03B06E
:1048C0005DF804FB0449F1E76846FBF71FFD02F0C1
:1048D000B0FE00BF1C8700001F87000037B50446EC
:1048E0003E480378BFF35B8FDB070ED402F0E1FF95
:1048F00058B127213A48FBF7E1FC384802F0E8FFBD
:10490000384A3949364801F0ACF82046FBF748FCF4
:104910002046FBF762FCA38873B920463049FBF7B9
:10492000A3FD2146684602230022FBF780FD2F49A4
:104930006846FBF7C4FD02E021462948EFE705463B
:104940006846FBF7E3FCC5B12046FBF737FC38B9F6
:1049500027496846FBF7BCFC6846FFF79BFF29E048
:10496000FEF76AFD2146FEF76DFE22496846FBF719
:10497000AFFC6846FFF76CFD20E02A460421204684
:10498000FFF77CFE0028F0D1012204212046FFF72A
:1049900075FE0028E9D1012203212046FFF76EFEB3
:1049A0000028E2D1012202212046FFF767FE0028FD
:1049B000CED0DAE76846FBF7A9FCD6E76846FBF7F6
:1049C000A5FC03B030BD054802F07FFF02F031FEC8
:1049D0006846FBF79BFCF9E7FAE7F9E7600B000292
:1049E000640B0002DC0100020D03000021870000BF
:1049F000BC8700002487000007B5FEF71DFDFEF709
:104A0000A5FEFFF7A1FEFEF7D9FF09496846FBF7AF
:104A10005FFC6846FFF73EFF6846FBF777FC03B094
:104A20005DF804FB6846FBF771FC02F002FE00BF74
:104A3000F18D000007B50F496846FBF749FC2721B7
:104A40006846FFF7D9FF6846FBF760FC0A496846ED
:104A5000FBF73EFC6846FFF7FBFC6846FBF756FC9D
:104A600003B05DF804FB6846FBF750FC02F0E1FD83
:104A7000F9E700BF1E8700002487000037B50268F1
:104A80001378412B83885FD1022B5DD15278422A63
:104A90004AD13449FBF70BFD044640BB3249684616
:104AA000FBF716FC6846FFF7F5FE2FE00546684663
:104AB000FBF72CFC0024FFF7A5FD22462E21FFF773
:104AC00063FDFEF7B9FC01222946FEF7DDFC012853
:104AD0000FD1FFF797FD2A466921FFF77CFD234997
:104AE0006846FBF7F5FB6846FFF7D4FE0EE00025AD
:104AF000E1E7FFF787FD00222E21FFF745FD1A4968
:104B00006846FBF7E5FB6846FFF7C4FE6846FBF71F
:104B1000FDFB03B030BD6846FBF7F8FB02F089FDF2
:104B2000F9E7F8E7F7E7F6E7014601226846FBF701
:104B30007EFC102200216846FBF760FB05466846B4
:104B4000FBF7E4FB0124B6E7012BA2D101460022CA
:104B500068460223FBF76BFC102200216846FBF736
:104B60004DFBA3E76D850000BC870000FD8D0000B4
:104B700010B504468CB06846FFF77BFE02A8FFF72D
:104B800078FE02230022214604A8FBF750FC4FF0D8
:104B9000FF330222214606A8FBF749FC694604A818
:104BA00000F03EFE00283FD002A906A800F038FE23
:104BB000002839D0BDF814305B088DF80730FFF7B6
:104BC00021FD36E008A8FFF765FE08A8FBF79EFB6D
:104BD00006A8FBF79BFB04A8FBF798FB0CB010BDE5
:104BE000BDF81C305B088DF80F30FFF70BFD02AAF3
:104BF00040F2EE31FFF7F7FC11490AA8FBF768FB1A
:104C00000AA8FFF747FE0AA8E0E708A8FBF77EFB23
:104C100006A8FBF77BFB04A8FBF778FB02F009FD75
:104C20000AA8F3E7F4E7F6E7064908A8FBF750FB04
:104C3000C8E76A4640F2ED31FFF7D5FCD0E700BF88
:104C4000FD8D0000BC8700007FB5FBF7BFFC40F284
:104C5000BC43434340F65420B3FBF0F364200533D8
:104C6000B3FBF0F20A2100FB123303A8B3FBF1F30C
:104C70000A4902F0CBF803A901A8FBF729FB01A818
:104C8000FFF708FE01A8FBF741FB07B05DF804FB46
:104C900001A8FBF73BFB02F0CCFC00BFC08D00007D
:104CA00007B5FEF7C9FBFEF751FD09496846FBF75A
:104CB0000FFB6846FFF7EEFD6846FBF727FB03B0E6
:104CC0005DF804FB6846FBF721FB02F0B2FC00BF75
:104CD000FD8D000007B509496846FBF7F9FA6846FB
:104CE000FFF7D8FD6846FBF711FB03B05DF804FB46
:104CF0006846FBF70BFB02F09CFC00BFF18D000047
:104D0000F7B50746FFF77EFC40F2EB310446FFF7AC
:104D100073FC40F2EA3106462046FFF76DFC102294
:104D2000054600213846FBF769FA0128024617D0EC
:104D300009D302282CD028496846FBF7C9FA6846EF
:104D4000FFF7A8FD39E0002265212046FFF743FC6C
:104D500022496846FBF7BCFA6846FFF79BFD2CE04A
:104D6000F3796BB1EB795BB165212046FFF733FC3A
:104D70001A496846FBF7ACFA6846FFF78BFD1CE062
:104D800015496846FBF7A4FA6846FFF783FD14E06F
:104D9000EB795BB165212046FFF71DFC0F496846A2
:104DA000FBF796FA6846FFF775FD06E00A49684684
:104DB000FBF78EFA6846FFF76DFD6846FBF7A6FA2B
:104DC00003B0F0BD6846FBF7A1FA02F032FCF9E748
:104DD000F8E7F7E7F6E7F5E7BC870000FD8D000090
:104DE00007B5FFF7B1FC09496846FBF771FA684659
:104DF000FFF750FD6846FBF789FA03B05DF804FB46
:104E00006846FBF783FA02F014FC00BFFD8D00003A
:104E100007B509496846FBF75BFA6846FFF73AFDB4
:104E20006846FBF773FA03B05DF804FB6846FBF7CE
:104E30006DFA02F0FEFB00BFFD8D000013B51649B0
:104E40000446FBF734FB68B920461449FBF72FFBF7
:104E5000044640B912496846FBF73AFA6846FFF73C
:104E600019FD0DE00024FFF7CDFB22460E21FFF7D0
:104E70008BFB0C496846FBF72BFA6846FFF70AFDE7
:104E80006846FBF743FA02B010BD6846FBF73EFAEE
:104E900002F0CFFBF9E700BF018E00003A8400006A
:104EA000BC870000FD8D000030B5054687B002A824
:104EB000FFF7DFFCFFF7A6FBAB880446B3B902AAF5
:104EC00040F2E931FFF78FFB02AA4FF47B712046D5
:104ED000FFF789FBFEF7B0FAFEF764FC1D4904A852
:104EE000FBF7F6F904A8FFF7D5FC20E0032B01D06F
:104EF000082B27D1002301AA04A928460193049373
:104F000000F0EEFC022304A9042202A88DF80F3061
:104F100001F050FE02AA204640F2E931FFF763FBA0
:104F2000042202A80DEB020101F044FECCE704A824
:104F3000FBF7ECF907B030BD04A8FBF7E7F902F086
:104F400078FBF9E7044904A8FBF7C2F904A8FFF7C6
:104F5000A1FCECE7FD8D0000BC87000010B58AB015
:104F60000C4601466846FBF7C4F902A8FFF781FC2E
:104F7000BDF80430032B0BD16A46204904A8FBF787
:104F8000A6FA04A96846FBF76FFA04A8FBF7BEF976
:104F900002A9684600F044FCC8B1BDF804305B08C3
:104FA0008DF80F30FFF72EFB02AA2146FFF71BFBFF
:104FB000134906A8FBF78CF906A8FFF76BFC06A8B7
:104FC000FBF7A4F96846FBF7A1F90AB010BD0D493B
:104FD00008A8FBF77DF908A8FFF75CFC08A8EFE735
:104FE00004A8FBF793F96846FBF790F902F021FB60
:104FF00006A8F6E708A8F4E7F5E700BF6E8500000D
:10500000FD8D0000BC87000008B5FFF7A7FFFEF785
:1050100013FABDE80840FEF7C5BBFFFF1FB50C46FD
:105020006846FFF726FCFFF7EDFA6A462146FFF7D0
:10503000DAFA084902A8FBF74BF902A8FFF72AFCA5
:1050400002A8FBF763F904B010BD02A8FBF75EF9F4
:1050500002F0EFFAFD8D000013B50C46FFF7D2FA0F
:1050600000222146FFF790FA08496846FBF730F91D
:105070006846FFF70FFC6846FBF748F902B010BD21
:105080006846FBF743F902F0D4FA00BFFD8D00003B
:1050900037B50D4610220021FBF7B0F8431C04463B
:1050A0000DD0FFF7AFFA22462946FFF794FA0D49D3
:1050B0006846FBF70DF96846FFF7ECFB06E00A4986
:1050C0006846FBF705F96846FFF7E4FB6846FBF71F
:1050D0001DF903B030BD6846FBF718F902F0A9FAD4
:1050E000F9E700BFFD8D0000BC87000038B50D4614
:1050F0000446FFF787FA04210022FFF745FA294604
:105100002046BDE83840FFF7C3BFFFFF07B500F0FA
:1051100047FC0223094903606846FBF7D9F8684653
:10512000FFF7B8FB6846FBF7F1F803B05DF804FB46
:105130006846FBF7EBF802F07CFA00BFFD8D00003B
:1051400007B500F02DFC0123094903606846FBF711
:10515000BFF86846FFF79EFB6846FBF7D7F803B039
:105160005DF804FB6846FBF7D1F802F062FA00BF75
:10517000FD8D000007B500F013FC00230949036012
:105180006846FBF7A5F86846FFF784FB6846FBF71F
:10519000BDF803B05DF804FB6846FBF7B7F802F012
:1051A00048FA00BFFD8D000013B50C46FFF72AFA40
:1051B00001222146FFF7E8F908496846FBF788F81D
:1051C0006846FFF767FB6846FBF7A0F802B010BD22
:1051D0006846FBF79BF802F02CFA00BFFD8D00003B
:1051E00007B509496846FBF773F86846FFF752FBB5
:1051F0006846FBF78BF803B05DF804FB6846FBF7E5
:1052000085F802F016FA00BFC88D000007B51449F2
:105210006846FBF75DF86846FFF73CFB6846FBF71E
:1052200075F810496846FBF753F86846FFF732FBFC
:105230006846FBF76BF80C496846FBF749F8684687
:10524000FFF728FB6846FBF761F803B05DF804FB45
:105250006846FBF75BF802F0ECF9F9E7F8E700BF06
:10526000CD8D0000268700007087000010B5044631
:10527000FFF7C8F92221FFF7A2F940B105492046FE
:10528000FBF7C0F82046BDE81040FFF7E1B802493F
:10529000F5E700BF1C8700001F8700000320704750
:1052A00030B5002304460A88251AAA4204DD14F802
:1052B000015B2B44DBB2F7E7541C0C80835430BDF8
:1052C00000F10A014068FFF7EBBF00F10A014068F6
:1052D000FFF7E6BF43681B789A090CBF0120032043
:1052E0009B0608BF01307047F0B50C88074625467D
:1052F000FF2315F1FF3513D3092617F8012B013EC3
:10530000F7D083EA020E1EF0800F1DBF83F00E035C
:105310005B0043F001035B005200DBB2D2B2EEE768
:10532000DB43621C0A800355F0BD00F10A014068AE
:10533000FFF7DABF00F10A014068FFF7D5BF10B5EB
:10534000044641684289C81C01F03FFC638904F1AE
:105350001001033363816068032201F02BFC04F128
:105360000A016068BDE81040FFF79ABFF8B5037CFA
:1053700004469A090CBF0125032513F00F0F0CBF3B
:105380000127002742893F2AC8BF47F0010707B11C
:1053900001356168D6B2481901F017FC2A4604F1BC
:1053A0001001606801F006FC63892B446381636827
:1053B00077B11D4405F8016C6268137823F03F0350
:1053C000137004F10A016068BDE8F840FFF768BF98
:1053D0001A7822F03F0216431E70F2E710B5044619
:1053E0004289033A92B242814068C11C01F0EDFB50
:1053F00063890120013B638110BD036810B5044639
:105400005B69984762896368121A92B219186281BF
:10541000184601F0DAFB63890120013B638110BD6E
:1054200010B5044641684289C81C01F0CEFB63896F
:1054300004F11001033363816068032201F0BAFBB9
:1054400004F10A016068BDE81040FFF74DBF10B5D8
:10545000044662894068033A92B26281C11C01F03D
:10546000B4FB63890120013B638110BD10B5044684
:1054700041684289C81C01F0A8FB638904F110014E
:10548000033363816068032201F094FB04F10A0195
:105490006068BDE81040FFF727BF10B50446628979
:1054A0004068033A92B26281C11C01F08EFB6389AD
:1054B0000120013B638110BD064B10B50360002342
:1054C000044601724381C260104600F0C4FA606075
:1054D000204610BD748F0000044B10B504460360D5
:1054E000406808B100F0BBFA204610BD748F000080
:1054F00010B50446024B0360FFF7EEFF204610BDD7
:10550000948F000010B50446FFF7F2FF204600F02C
:10551000A4FA204610BDFFFF10B50446024B0360FD
:10552000FFF7DAFF204610BDB48F000010B5044627
:10553000FFF7F2FF204600F090FA204610BDFFFF73
:1055400010B50446024B0360FFF7C6FF204610BDAE
:10555000548F000010B50446FFF7F2FF204600F01C
:105560007CFA204610BDFFFF10B50446024B0360D5
:10557000FFF7B2FF204610BD348F000010B504467F
:10558000FFF7F2FF204600F068FA204610BD0A46F9
:105590004189406800F073B94281406801F00ABB5C
:1055A0000322103001F006BB13B50138032855D88B
:1055B000DFE800F002114135142000F04AFA40F211
:1055C000091201210446FFF777FF2046284B40F8D7
:1055D000103B284B0DE0142000F03BFA40F209127A
:1055E00002210446FFF768FF2046234B40F8103B9A
:1055F000224B1A889B7801A9ADF8042003228DF86C
:10560000063001F0D7FAFEF7FDFF40F2EE31FEF76B
:10561000F3FFC3790146EBB9204602B010BD142058
:1056200000F017FA40F2091204210446FFF744FF84
:105630002046134BCBE7142000F00BFA40F209127E
:1056400003210446FFF738FF20460E4B40F8103B7D
:105650000D4BCEE72046FFF7A3FFDDE70024DBE795
:10566000204600F0FAF901F0E4FFF9E7F8E7F7E780
:10567000348F0000218F0000548F0000248F000021
:10568000B48F0000948F0000278F0000F7B5054607
:105690000C4600918DF80430C6B2C2B9C0F30320A5
:1056A000FAF7B4FD01462046FAF7AEFE3009FAF7E4
:1056B000ADFD01462046FAF7A7FE06F00F00FAF707
:1056C000A5FD01462046FAF79FFE03B0F0BD070E88
:1056D0003809FAF79BFD01462046FAF795FE07F0D8
:1056E0000F00FAF793FD01462046FAF78DFEC5F349
:1056F00007476846FDF7B4FB3809FAF787FD01460E
:105700002046FAF781FE07F00F00FAF77FFD014609
:105710002046FAF779FEC5F307256846FDF7A0FB9A
:105720002809FAF773FD01462046FAF76DFE05F0E9
:105730000F00FAF76BFD01462046FAF765FE684652
:10574000FDF78EFBB2E770B50D4616460446FEF730
:1057500059FF2B21FEF733FF3246034629462046E8
:10576000BDE87040FFF792BF78B14FF47A72074BF3
:105770001B68B3FBF2F300225843054B58609A6054
:1057800005221A601A68D203FCD570470000000297
:1057900010E000E0084B094A1B68B3FBF2F300225B
:1057A0005843074B323858609A6005221A601A68CD
:1057B000D203FCD5704700BF0000000240420F003A
:1057C00010E000E07FB50C460546144A01AB1068B6
:1057D0005168128903C301A920461A80FAF755FEC1
:1057E0002878C0B100092668FAF710FDB070287853
:1057F000266800F00F00FAF709FDF0706878266857
:105800000009FAF703FDF0716878246800F00F00D2
:10581000FAF7FCFC207204B070BD00BFCC8F000012
:105820002DE9F341022583880746DA0748BF03F1D3
:10583000FF33884693FBF5F50024AC4214D0620098
:10584000394668460223FAF7F2FD10220021684625
:10585000FAF7D4FC06466846FAF758FD731C07D0E1
:1058600008F804600134E8E7204602B0BDE8F081A2
:105870000020FAE76846FAF749FD01F0DAFEF7B5CD
:105880000E46044615460092FEF7BCFE2B21FEF79D
:1058900096FE26448DF80400A64216D0274614F83A
:1058A000010B0009FAF7B2FC01462846FAF7ACFDF5
:1058B000387800F00F00FAF7A9FC01462846FAF7FD
:1058C000A3FD6846FDF7CCFAE6E79DF804302BB15E
:1058D000A98819B101392846FAF728FD03B0F0BDAF
:1058E0002DE9F743002681460F469046344635465B
:1058F000B9F804309E4222D2D9F8003024F00F04C7
:105900009B5D25F00F05582B10D03246494668465E
:105910000123FAF78CFD10220021684644F00F04A1
:10592000FAF76CFC05436846FAF7F0FCB9F8043066
:10593000013B9E423CBF24012D010136D8E7032BD9
:1059400010D1C4F30A031C02A4B244EA13242B02AC
:105950009BB2C5F30725C8F800401D433D6003B066
:10596000BDE8F083082BFAD124F0604424BAC8F8CB
:1059700000402DBAF2E76846FAF7C8FC01F059FE7C
:10598000034610B5013901440A1A1C1AA24206DD69
:105990001A780C7803F8014B01F80129F4E710BDDF
:1059A00038B50A4D2C78BFF35B8F14F001040BD18E
:1059B000284601F07EFF38B10122054B284683E8D6
:1059C00014009C6001F084FF014838BD6C0B00029C
:1059D000700B000210B5FEF715FE6D21FEF7FFFDFE
:1059E0000446FEF70FFE0E21FEF7E9FD002814BF66
:1059F0000520012014B1A400604310BDC82010BDD3
:105A000043680BB9FFF7E6BF0268012A04D0022AF7
:105A1000F8D103F10A00704703F11E00704730B55A
:105A2000836885B0012B0446019103D8013383605C
:105A300005B030BD43688B422CBF051D01ADFFF79B
:105A4000C9FF2B680390984298BF03AD2B68636031
:105A5000EEE701F08DB801F08BB801F091B801F0DC
:105A60008FB800207047FFFF1B4A1C4BD2F88410F0
:105A700001F0030102291ED003292BD0012911D0E6
:105A8000D2F8802002F00302022A23D0032A10D089
:105A9000134A1A60104AD2F8C0101A68B2FBF1F229
:105AA0001A607047D2F8A02002F00302012AEFD05A
:105AB000EED30022EDE7D2F8A01001F00301012996
:105AC00000D0F6D2D2F89811054A01F01F0101FB6F
:105AD0000222DEE7034ADCE7004007400000000244
