:10000000003000024F010000110100001301000048
:1000100015010000170100001901000048C9FFFD8B
:100020000000000000000000000000001B010000B4
:100030001D010000000000001F0100002101000060
:100040002301000023010000230100002301000020
:100050002301000023010000230100002301000010
:100060002301000023010000230100002301000000
:10007000230100002301000023010000B51400004B
:100080006112000023010000230100002301000091
:1000900049150000130C000023010000230100009B
:1000A0002301000023010000230100004906000095
:1000B00023010000230100002301000023010000B0
:1000C00023010000230100002301000023010000A0
:1000D0002301000023010000230100002301000090
:1000E0002301000023010000230100002301000080
:1000F00023010000230100002301000070A600007E
:1001000000000002E0010000E0010002D40900004C
:10011000FEE7FEE7FEE7FEE7FEE7FEE7FEE7FEE7B7
:10012000FEE7FEE70B4610B5401A5C1AA24203D95F
:10013000C45843F8044BF8E710BD0346002210B53D
:100140001C1AA14202D943F8042BF9E710BD38B5B7
:100150000F4C104DAC4209D30F4DAC420ED254F8A7
:10016000080B54F8041CFFF7E8FFF6E794E80300D7
:100170000C3454F8042CFFF7D5FFEBE70122074BB2
:100180001A6005F0DDFC06F0D7FC04F091F9FEE7FB
:10019000FC0000000801000010010000D8400740EA
:1001A00070B506460024B3889C4206D23568285DA7
:1001B00006F02AFF28550134F5E770BD70B50546F5
:1001C00000248688B44206DA2B68185D06F0E1FC4C
:1001D00010B10134F6E7012070BD0023194630B498
:1001E0008588AB4207DA0268D45C0133202CC4BF97
:1001F00054540131F5E730BC00F098B809B1838858
:100200000B600021006806F0E9BEFFFF7FB50246E3
:100210006D460A4B03F110062C46186859680833DE
:1002200003C4B3422546F7D10F2ACFBF002004AB49
:10023000D21812F8100C04B070BD00BFB4810000D9
:10024000002110B5044601600171417181730822DB
:10025000063006F000FD204610BD10B543719DF834
:100260000830016083719DF80C300271C3719DF8F4
:10027000103003729DF8143043729DF81830837269
:100280009DF81C30C3729DF8203003739DF8243014
:10029000437310BD322938BF322110B50446481CC3
:1002A00080B2E08005F003FC034AE3881168206017
:1002B0000B44136010BD00BFE001000210B50446FE
:1002C000FFF7E8FF0023226820461370A38010BDCB
:1002D00038B5044608460D4606F0FAFDA08081B206
:1002E0002046FFF7D7FF2946206806F0E9FD2046A3
:1002F00038BD38B504460D4689888180FFF7CAFFAE
:100300002968206806F0DCFD204638BD10B504469B
:10031000006808B105F0CFFB034AE1881368204666
:100320005B1A136010BD00BFE001000283888B429E
:1003300081BF0022036881805A547047C38870B51A
:100340008B4204460D460DD2084605F0B0FBA2884C
:100350002168064606F05AFC206808B105F0ABFBA0
:100360002660E58070BD838870B58B4205460C46DB
:10037000164604D9A98000222B681A5570BDFDD2FB
:100380000131FFF7DBFFAB882868E21A31461844D9
:1003900006F061FCAC80A4B2EDE770B504460846F7
:1003A0000E4606F095FD0546A18801440131204620
:1003B000FFF7C4FFA38820683146184406F080FD8B
:1003C000A38820461D44A58070BD70B505460E4625
:1003D00014468188531C1944FFF7B0FFAB88286886
:1003E00022463146184406F011FC0022AB8828460C
:1003F0001C442B68A4B2AC801A5570BD8A88096869
:10040000FFF7E3BFFFF7C9BF38B504460D46818843
:100410000231FFF793FF0021A38822682046D554BC
:10042000A388226801339BB2A380D15438BDF8B5AC
:100430001D468B880F4693428CBF16460026044605
:10044000AB4238BF9D1B691CFFF738FF39682A464D
:1004500031442046FFF7B9FF04E02046FFF756FF7E
:1004600007F013F92046F8BD38B50C4605468988D3
:100470000131FFF763FFA28821680132286806F086
:10048000C5FBA3882846AB8038BD70B50446084636
:100490000E4606F01DFD0546411C2046FFF74EFFA7
:1004A0003146206806F00CFDA580204670BD08B5D9
:1004B000006806F0FBFCB0FA80F0400908BD08B502
:1004C000006806F0F3FC003018BF012008BD70B5CD
:1004D0001546044608460E4606F0FAFCA988014473
:1004E00001312046FFF7EAFE31462046FFF78AFF3A
:1004F00029462046FFF782FF04E02046FFF706FF6B
:1005000007F0C3F8204670BD274B2DE9F041D3F822
:10051000C420264942F00062C3F8C4205A6C244D1E
:1005200042F000625A645A6C4FF0804022F0006240
:100530005A64D1F8C0211F4F22F48062C1F8C02153
:10054000D3F808221C4922F48062C3F808222B68E1
:100550001A4C1B6A1A4E5B6898473B6830602360F0
:10056000184B214663602B681B6A9B6898473B6861
:100570004FF480622360144BA26163600023A36088
:10058000E3602361636123626362A362E3622363C6
:100590006363A3630B23E3632B6821461B6A306804
:1005A000DB68BDE8F0411847004007400080034089
:1005B000000200030000000224020002E401000225
:1005C0004403000220A10700001BB700002310B560
:1005D0008EB001930293059309930C93074B084A3D
:1005E0001B68084C04921B6A074A00941B69694601
:1005F00010689847A06A0EB010BD00BF000200034B
:10060000E401000214030002440300027047FFFFEC
:1006100010B5044601F03CF801F064F80120034BEA
:10062000A0401A681043186010BD00BF4C030002C0
:10063000002208B5034B1A7001F02AF8BDE8084003
:1006400001F046B850030002034B044A1B681068CF
:100650009B689B68184700BF000200035403000218
:1006600008B5184B0921D3F8C82042F08002C3F81E
:10067000C8209A6C42F080029A649A6C22F0800240
:100680009A640022104600F0D1FB0022122110468D
:1006900000F0CCFB00220921104600F09BFB012258
:1006A0001221002000F096FB074A936923F47F0390
:1006B00023F47F439361936943F4112343F400735C
:1006C000936108BD00400740008003404FF0FF33B6
:1006D0004FF000620360034B1A600022024B1A6065
:1006E000704700BF00E100E04C03000210B5094C68
:1006F0002378BFF35B8FDB0709D4204607F005F9A9
:1007000028B10548FFF7E2FF204607F00DF902483F
:1007100010BD00BF480300026C030002F0B503687F
:100720008DB08B4206460D4629D041F64B4242F62B
:10073000C533012918BF134601220193114B03ACA5
:100740000027029293E8070084E807001822394640
:100750000DEB0200009706F07EFA0B4BCDF820D08F
:1007600006930A4B09940793094B06A91B6809488D
:100770009B685B68984708B130BFFDE735600DB0F6
:10078000F0BD00BFC48100007003000200000F40F4
:1007900000020003540300020A7938B5002A14BF8E
:1007A0004FF0005200220B680025134308220D4C25
:1007B00006316560236011F8013CA018237406F02F
:1007C00025FA01236574084D084A2B70084B214611
:1007D0001B6810689B685B6998472B78002BFCD1DD
:1007E000012038BD580300025003000254030002E8
:1007F0000002000330B587B08DF815301C469DF817
:1008000028300292002B14BF4FF0005300231943ED
:100810000D4B0E4A1B6801919B681068DB6801A9AB
:100820009DF82C5098479023094A536241F208439F
:10083000936315B141F24843936301341462136A20
:100840001B04FCD407B030BD0002000354030002B7
:1008500000000F402DE9F34105460E461746984625
:100860000124A4F10F025342534101932346013462
:10087000CDF800803A4631462846E4B2FFF7BAFF89
:10088000102CEED1012002B0BDE8F0816FF0604283
:1008900001231146FFF7DEBFF0B5012400250A4E03
:1008A0000A4F87B08DF815408DF814503B680195BC
:1008B0009B6801A91B69306801349847202CF1D14D
:1008C000034B1D6007B0F0BD54030002000200039B
:1008D0004C03000237B5069D6C1E042C08D8012479
:1008E0008DE81800EBB2FFF785FF204603B030BD5E
:1008F0000020FBE74FF0FF3370B586B00193002373
:100900008DF8143001231E461C4A0C46116806FA65
:1009100003F511EA05002CD08DF81530184B11683D
:100920001B6821EA050111609B68164A1B6901A931
:1009300010689847019BA51D23F0604222609DF836
:100940001420C3F3407323716271002108222846EA
:1009500006F081F99DF8142003A9284606F056F9FF
:1009600001989DF81530013018BF0120A37306B01F
:1009700070BD0133202BCAD1F9E700BF4C03000240
:100980000002000354030002024B1868003018BF35
:10099000012070474C030002094B9A6959B922F4AF
:1009A0007F0222F47F429A619A6942F4112242F452
:1009B00000729A61704742F47F0242F47F42F8E786
:1009C000008003400A460020122100F017BA0921D6
:1009D000002000F021BAFFFF074B1A6839B142F03E
:1009E00080021A605A6942F008025A61704722F088
:1009F00080021A60704700BF00000F4010B5044627
:100A000000F54370FFF782FC204610BD10B532217F
:100A1000044600F54370FFF751FC0023204684F89C
:100A20001833A4F81433A4F81633C4F81C3384F82C
:100A3000203384F8213310BD08B50D480378BFF387
:100A40005B8FDB070DD406F060FF50B10948FFF75C
:100A5000DDFF074806F068FF074A0849054805F02A
:100A60002CF8044808BD024806F05BFF06F00DFEB6
:100A70006005000264050002DC010002FD090000BF
:100A800008B5144B0E21D3F8C82042F40032C3F845
:100A9000C8209A6C42F400329A649A6C22F40032B4
:100AA0009A640122C3F8D0200022104600F0BEF95B
:100AB00000220F21104600F0B9F9074A13681B0CF9
:100AC0001B041360136843F4606343F00F03136067
:100AD00008BD00BF00400740008003402DE9F043FF
:100AE0004FF40017DFF85080104ED8F80030104C4B
:100AF0005B6A8FB08946C6F8807004A95B6820469F
:100B000098470023012503930A4B8DF80C501B686E
:100B1000CDF808900193D8F8003001A95B6A9B6872
:100B200098473760E5600FB0BDE8F08300E100E072
:100B3000000004400000000200020003B0F814337B
:100B4000B0F816239A42074B08DA9968490707D587
:100B5000511CA0F81613825CDA61704704221A61F6
:100B6000704700BF000004400B4B10B59A68044664
:100B7000D2070FD5D4F81C23586994F820332AB132
:100B800023B9C0B2904784F8180310BD13B10123F4
:100B900084F8213310BD00BF0000044038B5084C74
:100BA0000546E268520701D5FFF7C8FFE368DB0797
:100BB00004D52846BDE83840FFF7D6BF38BD00BF92
:100BC00000000440024B9A685207FCD5D961704777
:100BD0000000044010B5084CE36813F00403FBD197
:100BE000A0F816338A880968A0F8142306F00EF8D6
:100BF0000423E36010BD00BF0000044031B10123B5
:100C000080F82033002380F82133704780F82013C8
:100C1000F8E708B5FFF710FF28B1FFF70DFFBDE8B3
:100C20000840FFF7BBBF08BD054A536823F47F03A4
:100C300023F47F435360536843F4E12353607047C8
:100C40000080034010B5074C2378BFF35B8FDB07B0
:100C500006D4204606F059FE10B1204606F064FE88
:100C6000014810BD880800028C08000230B58FB022
:100C70000D46FFF7D9FF4FF480020D4C0D4B04A930
:100C8000C3F8802023680C485B6A5B6898470023A0
:100C9000039301238DF80C30084B02951B6801A9C2
:100CA000019323685B6A9B6898470FB030BD00BF13
:100CB0000002000300E100E00040044000000002E8
:100CC000024B9A685207FCD5D96170470040044036
:100CD000024B986800F00100704700BF00400440DC
:100CE000014B5869C0B27047004004400E4B10B52C
:100CF0001A684FF47A73B2FBF3F314225A430B4B86
:100D00005A6000229A6005221A60094A906810F021
:100D1000010003D11C68E403F8D510BD5069C0B2CE
:100D2000431A5842584110BD0000000210E000E094
:100D30000040044009B9FFF777BF044A536843F401
:100D40007F0343F47F435360704700BF008003403C
:100D50000A460020082100F051B8FFFF002210B51C
:100D60001046072100F062F84FF48062082100204D
:100D700000F05CF8002201241046072100F02AF858
:100D800008210122002000F025F80C4BD3F8C820E0
:100D900042F48022C3F8C8209A6C42F480229A64FC
:100DA0009A6C22F480229A64C3F8D040FFF74AFF7D
:100DB0002146BDE81040FFF7CBBF00BF0040074011
:100DC0000721002000F028B8014B5B69704700BF85
:100DD00000400440800000F1E05000F5005032B1C6
:100DE0000123026803FA01F11143016070470122F7
:100DF000036802FA01F123EA0101F6E7012310B5C5
:100E00008B404FF0E05422B100F5086044F82030E8
:100E100010BD00F50A60F9E74FF0E05300F50460FB
:100E200053F82000C84000F001007047024B01EB6E
:100E3000401143F82120704700800F4008B501227F
:100E400005210020FFF7C6FF012205210020FFF742
:100E5000D5FF424B4248D3F8C82042F00402C3F801
:100E6000C8209A6C42F004029A649A6C22F0040240
:100E70009A640022A3F5C0231A603A4B1A653A4AD5
:100E8000D16921F47F41D161D16941F48071D1618F
:100E9000D16921F47F01D161D16941F4E811D161B7
:100EA00040F601621A604FF004125A602F4A5968E6
:100EB0001268B2FBF0F2013A41EA42125A6006228D
:100EC000DA644FF4A042C3F804234FF4C842C3F8D5
:100ED0000C234FF4D042C3F814234DF20302C3F89D
:100EE0001C23D3F8042542F00802C3F80425204A45
:100EF000C3F82423D3F8002542F01002C3F80025DC
:100F00001C4AC3F82C23D3F8042542F02002C3F86E
:100F10000425D3F80C2542F02002C3F80C25164A0C
:100F2000C3F83423D3F8002542F04002C3F800256B
:100F3000D3F8082542F04002C3F808250222C3F87E
:100F400004220422C3F808227E229A600722C3F8F2
:100F5000F0204FF48032094B1A6008BD0040074072
:100F600040420F000080011C00800340000000028E
:100F70000350010005D001000650020000E100E02E
:100F8000044B5A6842F004025A60C3F80011C3F8D7
:100F9000001270470080011C10B5074C2378BFF386
:100FA0005B8FDB0706D4204606F0AFFC10B120466D
:100FB00006F0BAFC014810BD90080002A00800022B
:100FC0000B4B5A6842F004025A6000221A655A64B8
:100FD000C3F80023C3F80823C3F81023C3F8182369
:100FE000C3F82023C3F82823C3F83023704700BF79
:100FF0000080011C38B5144B15465868134C40F05E
:1010000004005860002018645864C3F80011C3F845
:1010100000120121C3F80003C3F80813C3F810132A
:10102000596821F004015960207023785B0707D4C8
:10103000284600F0EFF90028F7D04FF0FF3038BD18
:10104000034B186838BD00BF0080011C98080002DF
:101050009408000201220A4BC3F80023C3F80823B6
:10106000C3F810230022074B1A701A785207FCD0DD
:101070001B78DB075ABF044B18680020704700BF7D
:101080000080011C98080002940800021A48F8B574
:1010900044681F4644F004044460012300240464AF
:1010A0004464C0F80043C0F80843C0F810334468F3
:1010B0000E4624F00404446015460446384600F009
:1010C000A9F988B9A36CD807F8D4A36CD907F5D4CB
:1010D000226CB242F9D9084B1A6CAA4202D2996C1E
:1010E000CA07F9D5012000E00020034A536843F005
:1010F00004035360F8BD00BF0080011C0F4B0420A7
:101100005A6842F004025A600022C3F80023C3F870
:101110000823C3F81023C3F818030220C3F82003E0
:101120001A6401225864C3F80C11C3F80C121A6532
:101130005A6822F004025A60704700BF0080011C08
:10114000054B82B0C3F80C125A6C0192596C019A8B
:101150009142FBD002B070470080011C10B54FF0E7
:10116000FF31FFF7EDFFBDE81040FFF729BFFFFF9C
:10117000114B01215A6842F004025A6000221A649D
:10118000C3F80013C3F80813C3F81013C3F82823D7
:10119000C3F83023596821F004015960074B08490E
:1011A0001A700A601A7812F0050FFBD01B78DB0763
:1011B00054BF0868002070470080011C9808000296
:1011C0009C080002164B82B05A68013912F0040FD5
:1011D0001A461BD000221020C3F80023C3F80823AE
:1011E000C3F81023C3F828030820C3F830031A6497
:1011F00004225A640322C3F81411C3F814121A65A6
:101200005A6822F004025A6002B07047C3F8141200
:101210005B6C0193516C019B9942FBD0F4E700BFDA
:101220000080011C064B0139C3F818125A6C82B0B9
:101230000192596C019A9142FBD002B0704700BFF5
:101240000080011C38B504461546FFF7BBFF294650
:101250002046BDE83840FFF7E5BFFFF7B1BEFFFF0E
:101260001B4AD2F8F430D9070AD51A48017841F060
:1012700001010170D2F8F41041F00101C2F8F4103C
:101280009A070FD5124A1449D2F804010860114890
:10129000017841F002010170D2F8F41041F002012E
:1012A000C2F8F4105B0712D5094B0B4AD3F80811AA
:1012B00011601168094A116006490A7842F0040277
:1012C0000A70D3F8F42042F00402C3F8F420704707
:1012D0000080011C98080002940800029C0800028B
:1012E000024B986C00F00100704700BF0080011CA9
:1012F000084B5A6842F004025A60027822B1003169
:1013000018BF012119657047002914BF032200226C
:101310001A6570470080011C10B50A460170084C20
:1013200039B1012205210020FFF768FD0023236069
:1013300010BD05211046FFF761FD0123F7E700BF4F
:10134000004001403A23F0B58DB003AE079331461B
:1013500007A8204B9847049B1E210093059B07A8D4
:101360000193069B00240293FEF7A8FF03255DF876
:1013700024300393775D3809FEF748FF014607A83C
:10138000FFF742F807F00F00FEF740FF014607A8FD
:10139000FFF73AF815F1FF35ECD22D2107A8FFF73A
:1013A00033F80134032CE1D1BDF8201007A801392E
:1013B000FEF7BCFF04E007A8FEF7A8FF06F065F9FA
:1013C00007A803F093FA07A8FEF7A0FF0DB0F0BD41
:1013D000F1E700BF050200030021034B08461B682C
:1013E000DB689B68184700BF00020003084B0268D7
:1013F0001B685943D36843F00103D3606FF07F4308
:101400008B4228BF0B4643F000431360704700BF78
:10141000B40800020368D86880F00200C0F34000FE
:101420007047FFFF026813685068044A23F07F4347
:101430001B1A1068B3FBF0F0704700BFB40800023D
:1014400038B5164C05462378BFF35B8FDA070BD40B
:10145000204606F05AFA38B1114B124A2046136062
:1014600002229A6006F060FA0F4C2378BFF35B8F7C
:10147000DB070BD4204606F048FA38B10B4B0C4A78
:101480002046136002229A6006F04EFA25B1012D23
:10149000074818BF002038BD024838BDA408000224
:1014A00000000A40B8080002A808000210000A4024
:1014B000BC080002024A936803F007039360704778
:1014C00000400B400022044B9A605A615A604FF46E
:1014D0000042024B1A60704700400B4000E100E000
:1014E0000022064B1868064BA1FB00019A60DA61E6
:1014F000DA600922186019619A607047B408000226
:1015000000400B40034B986880F00800C0F3C00017
:10151000704700BF00400B4010B5094C2378BFF363
:101520005B8FDB0709D4204606F0EFF928B10548A8
:10153000FFF7C8FF204606F0F7F9024810BD00BFCC
:10154000AC080002C0080002074BD3F8F8201207CD
:1015500009D5064A116831B1D3F8F82042F00802E3
:10156000C3F8F8200847704700000A40B00800029E
:101570000022044B1960044B9A634FF48012034B12
:101580001A607047B008000200000A4000E100E065
:101590000122064B1B685943054B41F000419A63F9
:1015A000DA6B42F00102DA6319637047B408000293
:1015B00000000A404FF47A72034B1B68B3FBF2F34E
:1015C000024A1360704700BF00000002B408000226
:1015D00008B50D4B1A681AB118680138186038B18F
:1015E0000A4B1A687AB118680138186028B108BD2A
:1015F00001220B21FFF702FCF2E70122BDE80840BF
:101600000D21FFF7FBBB08BDC8080002CC08000293
:1016100008B54FF480620B210020FFF707FC4FF460
:1016200080620D210020FFF701FC01220B21002028
:10163000FFF7D0FB01220D210020FFF7CBFB012299
:101640000B210020FFF7DAFB01220D210020FFF71C
:10165000D5FB0023024A1360024A136008BD00BF95
:10166000C8080002CC08000238B50446012004F086
:101670001CFA06490546FFF77BFF04E0284604F004
:1016800018FA06F002F82560204638BDD115000092
:1016900008B50B480378BFF35B8FDB0708D406F06F
:1016A00034F928B10748FFF7DFFF054806F03CF999
:1016B000044808BD024806F034F905F0E6FF00BF13
:1016C000C4080002D00800020A210068FFF760BFCA
:1016D0000A22034B0D211A6000221046FFF78EBB31
:1016E000CC0800020A22034B0B211A60002210468C
:1016F000FFF784BBC8080002012303717047002371
:10170000037170470023037170477047704770473B
:10171000704770477047002070477047042070473B
:1017200007B509496846FEF7D3FD684603F0DEF8C1
:101730006846FEF7EBFD03B05DF804FB6846FEF774
:10174000E5FD05F0A2FF00BFD081000007B52E2106
:10175000806802F05CFF0B4B0B49002808BF19465C
:101760006846FEF7B5FD684603F0C0F86846FEF728
:10177000CDFD03B05DF804FB6846FEF7C7FD05F03C
:1017800084FF00BFE3850000D581000070B50546E9
:101790000846164602F084F8036831461B68044682
:1017A000984708B1E368EB6070BD38B50A460C464F
:1017B00002210546FFF7EAFF00281BDC2246032131
:1017C0002846FFF7E3FF002814DC224604212846C0
:1017D000FFF7DCFF00280DDC224605212846FFF735
:1017E000D5FF002806DC22462846BDE83840062101
:1017F000FFF7CCBF38BDFFFF43682DE9F04F102B3A
:10180000D4BF002606680446334685B004EB0312B5
:1018100092F80D90B9F1000F14D10F2B0CBF4B466D
:1018200001339E42F2D10527BB1D322102A801934C
:101830003546FEF743FD07F1030B002102A8FEF732
:1018400075FD01E00A27EFE74FEA051804EB0800F1
:1018500000234A4602A9806803F044FF202239464B
:1018600002A8FEF780FD04EB08031B7B02A8002BF7
:101870000CBF52215321FEF7C7FD2022594602A872
:10188000FEF771FDA04498F80E1002A83031C9B2DD
:10189000FEF7BAFD2022019902A8FEF764FD05F1CA
:1018A000010A4FEA0A1802AA082104EB080004F012
:1018B00012F80F4902A8FEF7A5FD08F1FF3002AAB1
:1018C0000121204404F007F802A803F00FF80F2DBF
:1018D00014BF55460025AE42AFD102A8FEF716FD53
:1018E00005B0BDE8F08F02A8FEF710FD05F0CDFEB3
:1018F0002082000070B504461E4605680B68681C0F
:1019000004EB05152060AB600B792A736B734B7980
:101910000822AB73063104EB001005F077F9EE7383
:1019200023680F2BC4BF0023236063680133636007
:1019300070BD70474069FFF75FBFFFFF37B50446D2
:1019400001210069FFF728F800212069FFF73AF824
:10195000642003F04BFF2069FFF739F8F0B11C4910
:101960006846FEF7B5FC684602F0C0FF6846FEF721
:10197000CDFC012501212069FFF724F8642003F044
:1019800035FF2069FFF723F8012809D0114968467F
:10199000FEF79EFC684602F0A9FF09E00546E9E76C
:1019A0004DB90D496846FEF793FC684602F09EFF6C
:1019B0006846FEF7ABFC00212069FEF7EDFF03B09F
:1019C00030BD6846FEF7A2FC05F05FFEF9E7F8E7D8
:1019D000268200003F820000588200002DE9F0417D
:1019E0000646002401F02CFF144B34763360FEF7DA
:1019F0007DFE30614FF4847004F057F807460460B0
:101A0000446000F1100500F5887845F8084C05F8A9
:101A1000044C05F8034C05F8024C05F8014C284627
:101A200008220021103505F016F94545EDD10423B3
:101A30007761F36074763046BDE8F08190820000F3
:101A4000F0B500240E46174605468DB0027E129969
:101A500007940694059404940394029401940094CA
:101A600008A8FEF7FAFB3A4631460DF1260005F0CC
:101A7000CDF82346012208A96869FFF73BFF08A9B2
:101A80002869FEF789FE0DB0F0BDF7B51F46036863
:101A900004465B6C0D46164698473B46009032461E
:101AA00029462046FFF7CCFF03B0F0BD2DE9F043F7
:101AB0000646002085B0B2F5805F884691460090CA
:101AC00001903BDA4FF47A71B06802F0BDFDC37942
:101AD0000546002B35D009F101070821B06802F056
:101AE00096FD00B10137EC79231C18BF0123082FA4
:101AF000737628DC1CB101242B788DF80030336814
:101B00003046DB6A98470B280CBF3D460825082164
:101B1000B068EDB202F07BFD20B104AB234403F8C2
:101B2000109C01344A4641460DEB040005F06EF866
:101B30002B46FAB269463046FFF7A7FF05B0BDE86D
:101B4000F0834F46C9E7084902A8FEF7C1FB02A887
:101B500002F0CCFE02A8FEF7D9FB0020EEE702A8B7
:101B6000FEF7D4FB05F091FD778200002DE9F041EE
:101B700014460D461F4602F06DFD2B2102F047FD75
:101B8000804602F067FD092102F041FD2A790646F0
:101B90002146286803F003FEB8F1000F0CD0202185
:101BA0002046FEF731FC76B1697920463031C9B262
:101BB000FEF72AFC202103E02EB169793031C9B249
:101BC0002046FEF721FC22463946A81DBDE8F0411B
:101BD00003F081BE2DE9F34105460C4668463221EB
:101BE000FEF76CFB6B7E1821002B14BF0227012728
:101BF00007F1FF3804EB0803A8689E7902F007FD9F
:101C000048B1BB196A4621462846FFF7AFFF684630
:101C100002F06CFE0FE00821A86802F0F8FC063420
:101C20006A4620B13146E01903F055FEEFE7711C1A
:101C300004EB0800F8E76846FEF768FB02B0BDE871
:101C4000F0816846FEF762FB05F01FFD2DE9F047C5
:101C5000814686B00D4602A83221FEF72FFB99F887
:101C600019301821002B0CBF0126022606F1FF3A7D
:101C700005EB0A039C79D9F8080005EB06030CBFB5
:101C80000627052793F8068002F0C1FC38B1082327
:101C900029460DEB03024846FFF768FF29E00821BB
:101CA000D9F8080002F0B3FC0635E8B1220202F4CC
:101CB0007062194942EA080201A805F0D3F801A9A7
:101CC00004A8FEF705FB04A802F010FE04A8FEF726
:101CD0001DFB124902A8FEF7D8FB3946701C02AA68
:101CE000284403F0F8FD04E002AAB91C05EB0A0041
:101CF000F7E702A802F0FAFD02A8FEF707FB06B01C
:101D0000BDE8F08704A8FEF701FB02A8FEF7FEFA83
:101D100005F0BBFCF9E700BF6E8200007382000093
:101D20002DE9FF4106460C4602A832219046FEF7F7
:101D3000C5FA737E1821002BB0680BBF0125022560
:101D40000727062702F063FC38B1082321460DEB74
:101D500003023046FFF70AFF1AE00821B06802F0DC
:101D600056FC063478B1114908F00F0201A805F0BD
:101D700079F801A902A8FEF788FB394602AA601982
:101D800003F0A9FD04E0681E02AA791C2044F7E7CD
:101D900002A802F0ABFD02A8FEF7B8FA04B0BDE855
:101DA000F08102A8FEF7B2FA05F06FFC698200002C
:101DB000437E1944CB797F2B05D1487AA0F1780373
:101DC0005842584170470020704708B503F014FE90
:101DD000BDE8084003F040BE2DE9F04F89B0039202
:101DE00004460F46FFF7F1FF04AD00EB400A28461A
:101DF000FEF726FA4FF47A71A06802F025FCC37949
:101E00000020003318BF01236376FFF719FB00267B
:101E100051460290FFF7EAFAFFF77EFBB146B34660
:101E200051468046FFF75CFB00962069FEF7ACFD4B
:101E3000019090B329462069FEF75CFD03F0DCFDBC
:101E400083460298FFF7EEFA0146584603F013FE68
:101E5000294660699DF81E300022FFF74BFD294698
:101E60002046FFF7A5FF70B3009B642B2BDC41F2EB
:101E700088314046FFF734FB009B0133009326E096
:101E80009DF816302BE02368294620469B6C984726
:101E900029462046FFF7DAFEBB464046FFF732FBF5
:101EA00010B9039B9E42C0D3584609B0BDE8F08FDD
:101EB00009F101094A4629462046FFF731FFEBE7C1
:101EC000DDF804B0E9E751464046FFF709FB01366B
:101ED000002FF5D0637E002BD2D09DF817301B0960
:101EE000012BD0D001D3022BE2D029462046FFF7A8
:101EF00071FED1E7F8B504460E46174600691D4647
:101F0000FEF7CAFC3A4631462046FFF7CFFD48B1FE
:101F10002A4601212046FFF75FFF002814BF072053
:101F20000420F8BD0320F8BD2DE9F04103688CB012
:101F30005B6C04460F4698470023012507930693E0
:101F4000059304930393029302230146227E8DE8B6
:101F5000280008A80823FEF780F923682046DB69DB
:101F6000E56098470621A06802F051FB0646B8B923
:101F70002069FEF791FC08A92069FEF70DFC804658
:101F800033462A4608A96069FFF7B4FCB8F1000F90
:101F90000FD04FF0FF3239462046FFF71DFF40B10A
:101FA000237E25711BB107200CB0BDE8F08106200F
:101FB000FAE7236820461B6A984704230020E36061
:101FC000F2E706207047FFFF37B504462E218068F0
:101FD00002F01DFB23680546DB6A204698470B2864
:101FE0000BD00C4B0C49002D08BF19466846FEF774
:101FF0006FF9684602F07AFC01E00849F6E76846A6
:10200000FEF784F903B030BD6846FEF77FF905F0AE
:102010003CFB00BFF5820000EF820000DC82000084
:1020200037B504462E21806802F0F1FA2368054690
:10203000DB6A204698470B280BD00C4B0C49002D2F
:1020400008BF19466846FEF743F9684602F04EFCA1
:1020500001E00849F6E76846FEF758F903B030BDDD
:102060006846FEF753F905F010FB00BF0F83000030
:102070000E830000168F000010B504460121006990
:10208000FEF74CFB236820465B6B9847FFF700FB8D
:10209000FFF71AFB03F0B0FC00234360836010BD20
:1020A000C379042B0CD18378C1780278002061F3C6
:1020B000070063F30F2063F3174062F31F6070475C
:1020C000022B03BF4378007843EA002000207047CA
:1020D00008B540F2EE31806802F0B6FAC37923B158
:1020E000FFF7DEFFC0F30A0008BD40F2DF7008BD55
:1020F00070B54FF47B710446806802F0A5FAC3798D
:10210000ABB1FFF7CDFFC0F30A0540F2E931A0689B
:1021100002F09AFAC3796BB1FFF7C2FFC0F30A016C
:102120002A4620690023BDE87040FEF793BB4FF4B8
:10213000FF65EAE74FF4FD61F2E72DE9F04104465F
:102140008CB0884680680A2102F061FA00284AD0E3
:102150006521A06802F06BFA40F2EB310646A068F8
:1021600002F072FA40F2EA310746A06802F06CFA17
:102170000022302307920692059204920392029263
:1021800001920093054608234FF4FC6108A8FEF76E
:1021900064F8D8F80020089B02F007021343012ED0
:1021A000089314D12FB13846FFF77AFFC0F30A0025
:1021B000089075B1082200210DF1260004F04BFDB6
:1021C000EA7929460DF1260004F020FD01E0002EF9
:1021D000EFDC08A92069FEF7DFFA0023012208A935
:1021E0006069FFF787FB0CB0BDE8F08107207047FE
:1021F00007B52E21806802F00AFA0B4B0B49002824
:1022000008BF19466846FEF763F8684602F06EFBA1
:102210006846FEF77BF803B05DF804FB6846FEF7FE
:1022200075F805F032FA00BF6E8300006883000085
:1022300007B52E21806802F0EAF90B4B0B49002804
:1022400008BF19466846FEF743F8684602F04EFBA1
:102250006846FEF75BF803B05DF804FB6846FEF7DE
:1022600055F805F012FA00BF88830000878300004C
:1022700070B5302300240E4605468CB000930794B9
:102280000694059404940394029401940823012273
:102290000A4908A8FDF7E1FF3368089A1B029BB2C0
:1022A000134308A928690893FEF776FA234601220A
:1022B00008A96869FFF71EFB0CB070BDF100DA18C1
:1022C00010B5044601210069FEF728FA236820466C
:1022D0005B6B9847FFF7DCF9FFF7F6F903F08CFB2F
:1022E00000234360836010BD38B540F2EE310546EF
:1022F000806802F0A9F9C379094C13B1FFF7D0FE49
:10230000044640F2ED31A86802F09EF9C37923B18A
:10231000037803F01F0363F31F64204638BD00BF3A
:10232000F133DB1870B54FF47B710446806802F01E
:102330008BF9C379ABB1FFF7B3FE20F0604540F2F3
:10234000E931A06802F080F9C37963B1FFF7A8FE14
:1023500020F060412A4620690123BDE87040FEF765
:1023600079BA024DEBE70249F4E700BF00FFFF1F17
:1023700000F1DA1840697047002303717047036861
:102380009B6918474161704708B542F6A001C069D2
:10239000FEF76CFC03F030FB00234360836008BD54
:1023A00013B504462E21806802F031F96369042BCD
:1023B0000FD0052B19D0032B25D1174B1749002817
:1023C00008BF19466846FDF783FF684602F08EFA9B
:1023D00016E0134B1349002808BF19466846FDF75D
:1023E00077FF684602F082FA0AE00F4B0F49002897
:1023F00008BF19466846FDF76BFF684602F076FA9B
:102400006846FDF783FF02B010BD6846FDF77EFF0A
:1024100005F03BF9F9E7F8E7558400004F84000028
:102420006684000060840000848400007E840000D4
:1024300013B504462E21806802F0E9F86369042B85
:102440000FD0052B19D0032B23D11C4B1C4900287E
:1024500008BF19466846FDF73BFF684602F046FA9A
:102460001EE0184B1849002808BF19466846FDF7BA
:102470002FFF684602F03AFA12E0144B1449002884
:1024800008BF19466846FDF723FF684602F02EFA9A
:1024900006E010496846FDF71BFF684602F026FA81
:1024A0006846FDF733FF02B010BD6846FDF72EFF0A
:1024B00005F0EBF8F9E7F8E7F7E700BF7C8E0000DE
:1024C0009B8400009F8400009E840000A284000082
:1024D000A1840000A484000037B504460121C0692E
:1024E000FEF728FC0121E069FEF732FC012003F031
:1024F00067F9E069FEF764FC0128054607D01B492F
:102500006846FDF7E5FE684602F0F0F919E00021A3
:10251000E069FEF71DFC284603F052F9E069FEF77A
:102520004FFC38B912496846FDF7D2FE684602F002
:10253000DDF906E00F496846FDF7CAFE684602F07D
:10254000D5F96846FDF7E2FEE0690021FEF700FCE0
:102550000021E069FEF7EEFB03B030BD6846FDF7F1
:10256000D5FE05F092F8F9E7F8E700BFF483000024
:10257000148400002F84000013B5044632216846FD
:10258000FDF79CFE694604F1110003F047F9684627
:1025900002F0ACF96846FDF7B9FE02B010BD68461E
:1025A000FDF7B4FE05F071F810B50446606AFEF759
:1025B00031FF0028FAD010BD10B5044601F040F9F3
:1025C000084B236000236361FEF73CFBE061FEF7EC
:1025D000A3FF20620120FEF733FF04236062E36063
:1025E000204610BDB08400002DE9F04107460846A2
:1025F0000D46904601F016FA00220D211046FEF716
:10260000FDFB00246B899C421BDA6B68F869195D3D
:10261000FEF756FB6B68F869195DFEF767FB064627
:1026200030B901220D21FEF7E9FB3046BDE8F0810B
:102630006B89013B9C4202DA404603F0C1F8013449
:10264000E0E701220D210020FEF7D8FB0126ECE790
:102650002DE9F04700249A464C81074601200D469B
:102660009146DDF82080FEF7EBFE51460646FEF768
:10267000BDFE4C4508DAF869FEF72AFB70B9304612
:10268000FEF7C8FE0028F6D0002001220B21FEF73D
:10269000B5FB2846BDE8F04701F0C4B9F869FEF77C
:1026A0001FFB6B896A68591C6981D0544CB903F0CF
:1026B000A3F982463046FEF7B5FE0146504603F0C8
:1026C000DAF900220B211046FEF798FB414630460E
:1026D000FEF78CFE0134CCE7002270B505460A26D1
:1026E00010460D21FEF78AFB0121E869FEF722FB67
:1026F0002C7E640044F4007404F00101E869FEF7E4
:1027000027FBC82003F05CF8013E4FEA5404F3D1E4
:1027100001220D213046FEF771FBE869FEF750FB00
:1027200004463146E869FEF705FB201C18BF01206E
:1027300070BD002238B504460D211046FEF75EFB41
:10274000E0690121FEF7F6FA0021E069FEF700FBDF
:10275000192003F035F80121E069FEF7F9FA192094
:1027600003F02EF801220D210020FEF747FBE0695F
:10277000FEF726FB05460021E069FEF7DBFA281C80
:1027800018BF012038BD0B7A10B5022B0C460DD1B5
:102790000B6808465B69984763681A5C7F2A05D115
:1027A00003449B78782B01D1012010BD002010BD7F
:1027B00008B503F021F9BDE8084003F04DB908B5AC
:1027C0000321806801F023FF002814BF13200D208F
:1027D00008BD10B520210446806801F018FF68216B
:1027E0002074A06801F023FF002808BF3320207662
:1027F00010BD08B56F21806801F019FF14235843FC
:1028000008BD10B50446FFF7F4FF014610B1206A79
:10281000FEF766FE606A3721BDE81040FEF7E6BDB0
:1028200010B50446FFF7E5FF23792BB120B1206AEC
:10283000BDE81040FEF766BE002010BD10B504468E
:10284000006810B103685B689847204610BDFFFF21
:102850002DE9F04104468CB001200D4602F0D0FE77
:1028600000230CAF47F8240D23714DB1614904A832
:10287000FDF72EFD04A801F013FE04A8FDF746FDA8
:102880002046FFF729FF38B90B243846FFF7D6FF5B
:1028900020460CB0BDE8F081E069FEF795FA4DB135
:1028A000554906A8FDF714FD06A801F0F9FD06A894
:1028B000FDF72CFD14230322009303994FF4967324
:1028C0002046FFF7C5FE039B5A89002A7ED0032AC3
:1028D00001D00324D9E75B681A78552AF9D15E78CC
:1028E000667493F8028084F812804DB1424908A8BA
:1028F000FDF7EEFC08A801F0D3FD08A8FDF706FDE2
:10290000212002F05DFF039B20465A689378DB4349
:1029100013700123039907224B81FFF765FE0028FE
:10292000B2D0142301220093039932232046FFF7EB
:102930008FFE039A5389002B48D0012BC9D1237EE7
:102940005268DB431278DBB29A42C2D14DB12A49B8
:102950000AA8FDF7BDFC0AA801F0A2FD0AA8FDF730
:10296000D5FC2E21A06801F052FE237C5BB9032D1B
:1029700001D005B120B301232371032363612046F5
:10298000FFF73FFF20E0B8F1080F02D0B8F1940F35
:1029900006D1032DEFD0002DEDD00028EBD1EEE7CE
:1029A000B8F18F0FEBD1012306F00F0603FA06F6FC
:1029B00016F42A4FE3D035F0040301D00028DED00E
:1029C000012323710423D9E723790BB905245CE79C
:1029D00001245AE704A8FDF799FC3846FFF72EFFBB
:1029E00004F053FE06A8F6E708A8F4E70AA8F2E701
:1029F000F3E700BFE7830000F28300002DE9F04316
:102A000087B004460D46FFF7D3FE06462046FFF783
:102A1000D6FE0746022002F0F3FD00230390237147
:102A20004DB13A4904A8FDF753FC04A801F038FD64
:102A300004A8FDF76BFC2046FFF77BFE40B94FF082
:102A40000B0903A8FFF7FAFE484607B0BDE8F0837C
:102A500001222F49039802F0CBFD039803689B687D
:102A60009847E069FEF7B0F9072203992046FFF77F
:102A7000BBFD0028E3D04FF005094FF014080125F5
:102A8000CDF8008033463A4603992046FFF7E0FD33
:102A9000039B5A896AB321790029F1D1042A02DC07
:102AA0004FF00309ECE75B681A78F2B112F0C00F3F
:102AB0001DD012F03F0F14BF03220422995CC129DC
:102AC000EED11A44537863749278A274227C32B1A6
:102AD00003F00F0305FA03F313F42A4FE0D00523A4
:102AE000257163614FF00109CAE70222E6E701227E
:102AF000E4E72046FFF785FEA3E704A8FDF706FC00
:102B000003A8FFF79BFE04F0C0FDF9E7E783000090
:102B1000E0830000037973B504460BB1606933E0CC
:102B2000FFF757FE23682046DB6998476569BDB10A
:102B3000032D03DB042D03DD052D19D0002604E051
:102B400029462046FFF784FE06462379F3B1BDB13E
:102B500013496846FDF7BCFB684601F0C7FE0CE070
:102B600029462046FFF774FE23790646002BECD158
:102B700029462046FFF742FFE6E76846FDF7C6FB19
:102B80002079E6600028C9D102B070BD23682046D4
:102B90001B6A9847F4E76846FDF7B8FB04F075FD3B
:102BA000E48300007FB50446FFF73AFE002848D0D2
:102BB0002046FFF7FDFD63690546052B0CBF02208B
:102BC000012002F01DFD40F2F1310390A06801F0F8
:102BD0003BFDC279014652B1039802F009FD03980A
:102BE0000368DB689847E069FEF7EEF80EE063697A
:102BF000032B08D102221649039802F0F9FC03982E
:102C000003689B68EEE701221249F5E70722039962
:102C10002046FFF7E9FC18B92046FFF7F2FD0DE06A
:102C2000142600962B464FF4827203992046FFF734
:102C30000FFD039B5B89002BF3D1EDE703A8FFF7A2
:102C4000FDFD04B070BD03A8FFF7F8FD04F01DFD05
:102C5000E1830000E38300002DE9F04F87B09B463D
:102C600004460D461746FFF7A3FD06462046FFF72C
:102C7000A6FD4FF44371824604A8FDF71FFB63696C
:102C8000052B0CBF0220012002F0BAFCBAB2294683
:102C9000039002F0ADFC039803689B6898472046B8
:102CA000FFF782FCE069FEF78FF8072203992046C0
:102CB000FFF79AFC8046002845D00025A9462F46FC
:102CC0005D4537D01423524600930399334620467E
:102CD000FFF7BEFC03994B8963B3042B35DD204617
:102CE000FFF751FD00283BD0642F39DC013741F25A
:102CF000883639E020B104A9039802F074FC10E092
:102D0000039803681B6998470028F4D10A2403A894
:102D1000FFF794FD04A8FDF7F9FA204607B0BDE8D7
:102D2000F08F04A802F0CEFA002104A8C146FDF7F6
:102D3000FDFAC5E72046FFF764FDB9F1000F0CBFAF
:102D400004240724E3E70B24E1E70324DFE703A8D7
:102D5000FFF774FD04A8FDF7D9FA04F096FCF9E733
:102D60002046FFF725FD06461821A068013501F031
:102D70004EFCBFE770470A207047036810B5DB6957
:102D80000446984701230A20E360237110BDFFFF2A
:102D900007B509496846FDF79BFA684601F0A6FDAC
:102DA0006846FDF7B3FA03B05DF804FB6846FDF72B
:102DB000ADFA04F06AFC00BFF884000007B52E21CC
:102DC000806801F024FC0B4B0B49002808BF194612
:102DD0006846FDF77DFA684601F088FD6846FDF714
:102DE00095FA03B05DF804FB6846FDF78FFA04F02E
:102DF0004CFC00BF178500001685000008B50021B7
:102E00000069FDF78BFCFEF743FCBDE80840FEF7C8
:102E10005BBCFFFF38B540F2EE310546806801F03B
:102E200013FCC379184C73B1042B24D18378C17877
:102E30000278002061F3070063F30F2063F317406B
:102E400062F31F60044640F2ED31A86801F0FCFB1C
:102E5000C37923B1037803F01F0363F31F6440F2C7
:102E6000EF31A86801F0F0FBC37913B1037863F385
:102E70000704204638BD022B05BF447800780020A7
:102E800044EA0020DEE700BFF9FFEA1803791BB12E
:102E900020210068FDF7B8BA7047FFFF38B5044637
:102EA000FEF79CFD094B102023600123237602F0DE
:102EB000FCFD2146054600F01BFA04E0284602F01E
:102EC000F8FD04F0E2FBE561204638BD24850000F2
:102ED000082A03DCD3B21A46FEF7D7BD002070479C
:102EE000F7B50125144F00950C0206462B463A46CD
:102EF00021460069FDF7EEFC02234FF47F020093A8
:102F00004FF468012B463069FDF7E4FC0323A4B2BB
:102F100000933A462B4644F46C013069FDF7DAFC25
:102F200004233A46009344F46B012B463069FDF7C5
:102F3000D1FC03B0F0BD00BF00FFFF001FB5C369A7
:102F40000B49DA8801A803F08DFF01A902A8FDF75B
:102F5000BFF902A801F0CAFC02A8FDF7D7F905B035
:102F60005DF804FB02A8FDF7D1F904F08EFB00BF69
:102F70006E820000F7B5144600920D4601F06AFB20
:102F80002B2101F044FB8DF8040001F063FB1E21AE
:102F900001F03DFB002853D02868C0F38260FDF7A4
:102FA00035F901462046FDF72FFA6846FFF76EFF18
:102FB0002E68360AC6F31107380CFDF727F90146CB
:102FC0002046FDF721FAC7F30330FDF71FF901464C
:102FD0002046FDF719FAC7F30320FDF717F901465C
:102FE0002046FDF711FAC7F30310FDF70FF901466C
:102FF0002046FDF709FA06F00F00FDF707F9014634
:103000002046FDF701FA6846FFF740FF2E783009A9
:10301000FDF7FCF801462046FDF7F6F906F00F0033
:10302000FDF7F4F801462046FDF7EEF96846FFF794
:103030002DFF22466979A81D02F04DFC03B0F0BDBA
:1030400001222146286802F0AAFBEFE737B50546C2
:103050000C4668463221FDF731F91821A86801F0C5
:10306000D6FA6A4638B121462846FFF783FF6846FC
:1030700001F03CFC04E06179A01D02F02CFCF6E7B5
:103080006846FDF743F903B030BD6846FDF73EF9E9
:1030900004F0FBFA30B5054685B00C4602A8322193
:1030A000FDF70CF91821A86801F0B1FA28B102AABD
:1030B00021462846FFF75EFF0EE00E49A2796846DA
:1030C00003F0D0FE694602A8FDF7DFF9617902AA94
:1030D0000139E01D02F0FFFB02A801F007FC02A885
:1030E000FDF714F905B030BD02A8FDF70FF904F0A3
:1030F000CCFA00BF0F85000010B501F0ABFA6D21CE
:1031000001F095FA044601F0A5FA0E2101F07FFACC
:10311000002814BF0520012014B1A400604310BD95
:1031200040F2DC5010BDF0B585B00446FFF7E4FF77
:1031300007466846FDF784F80020FEF781F9394616
:1031400006460025FEF752F92069FDF71DFC70B315
:1031500069462069FDF7CEFB48B39DF80E3000228A
:1031600069466069FEF7C6FB39463046FEF73EF910
:10317000009B69461B0A03F47F43B3F56B4F1ED0D7
:10318000B3F56C4F0BD0B3F5684F04D1E06900F094
:1031900030F960B169462046FFF758FF06E0E06964
:1031A00000F0B2F869462046FFF7C8FE0135304608
:1031B000FEF730F90028C7D0284605B0F0BDE06919
:1031C00000F007F969462046FFF764FFEEE737B5E0
:1031D00000230446684615460093019303F016FD4C
:1031E0001D21A06801F013FA18B92946684602F0BB
:1031F000F3FB2069FDF750FB2A4669462046FFF79E
:1032000067FEC8B19DF801309DF802101B0243EA29
:1032100001439DF8001020461943FFF761FE204648
:10322000FFF781FF0028206914BF07250425FDF75B
:103230002DFB284603B030BD0325FAE72DE9F34105
:103240000D469046044601F005FA0D2101F0DFF924
:10325000074618B101212069FDF7BEFB294620462B
:10326000FFF73EFEFDF7E8FB012105460026FDF7CE
:10327000C5FC2046FFF757FF95F8213313B90644E4
:103280004645F6D32069FDF701FB1FB100212069F7
:10329000FDF7A2FB95F821334BB10B496846FDF7CA
:1032A00017F8684601F022FB6846FDF72FF8002169
:1032B0002846FDF7A3FC02B0BDE8F0816846FDF7A3
:1032C00025F804F0E2F900BFF08400004FF0FF326F
:1032D0004FF6CA61FFF7B2BF10B44C780A782402E7
:1032E000897844EA024421431A4610BCFFF7A6BF7E
:1032F000002201600271C280C27202734273827244
:10330000427202727047FFFF1FB5B1F807300446E2
:10331000C3804B7A03710B680373006803685B6CAE
:1033200098470023637311238DF8083001238DF82B
:103330000A30FF238DF80B308DF80C302379227B77
:103340008DF80930237AE0728DF80D30637AC0B2BF
:103350008DF80E30A37A8DF80F30074B43EA022325
:103360001843082300901A460DEB03012068FEF76E
:1033700067FB04B010BD00BF0000EC1C1FB513229A
:103380008DF80820FF22C3888DF80C208DF80930B5
:103390001B0A8DF80A300379027A8DF80B30437AD4
:1033A0008DF80D208DF80E30837A8DF80F30C37AAA
:1033B00043F0E75343F4402343EA022300930823F6
:1033C00000681A460DEB0301FEF73AFB05B05DF805
:1033D00004FB437B89790133DBB29942437304D107
:1033E00003798B4203D1FFF7C9BF0020704701204A
:1033F000704730B5CB7A057A0C7B427A497BAB4279
:1034000008BF94420CBF01230023807A814214BF7D
:10341000002003F0010030BDCB0713B50FD54A1EC5
:10342000012301466846FDF702F810220021684694
:10343000FCF7E4FE04466846FCF768FF0CB94FF061
:10344000FF34204602B010BD6846FCF75FFF04F071
:103450001CF910B50446012000F022FA2060204635
:1034600010BDFFFF08B50B480378BFF35B8FDB0788
:1034700008D404F04AFA28B10748FFF7EAFF0548E4
:1034800004F052FA044808BD024804F04AFA04F075
:10349000FCF800BFD4080002D808000200680368E6
:1034A0009B68184700680368DB6818470068036872
:1034B0001B69184770B50446154606680B294CD899
:1034C000DFE801F00613181A313B45474B4B4945DD
:1034D000012000F0E5F92060042000F0E1F9036824
:1034E00000215B69984795B90BE0022000F0D8F9FC
:1034F0002060F8E70320F9E7042000F0D1F920600C
:103500000DB9012070BD032103685B6998472368EA
:103510009E42F6D0336830461B6A9847206803689D
:10352000DB699847EDE7042000F0BAF92060002D30
:10353000E7D0036804215B69E8E7042000F0B0F9F4
:103540002060002DDDD0036805215B69DEE70520E2
:10355000CCE70620CAE70720C8E7022070BD38B5CF
:1035600005680420144600F09BF9854214BF08202A
:10357000092024B1A042B4BF0020012038BD20465C
:1035800038BD00680368DB6A1847FFFF2DE9F04784
:103590000C46898886B01A2907466DD82046FFF761
:1035A0003BFF02A98246204602F066F902A9814645
:1035B00002463846FFF7D3FF70B934496846FCF736
:1035C00087FE684601F092F96846FCF79FFE0324E7
:1035D000204606B0BDE8F087386803793BB1036840
:1035E0004A465C6802A95346A0470446F0E72849CA
:1035F0002046FCF75CFF064630B1FFF733FFFFF7CC
:10360000C0FFB0FA80F67609012000F049F93B6866
:103610008046984213D1036831461B689847054697
:103620003B68DC68002DD3D0002229463846FFF7DE
:1036300041FF16B1033D022D20D83868CFE71A6844
:10364000314612681846904705463B68DC6801F031
:1036500001F82E2100F0DBFF002DE5D10028B7D0C6
:10366000042CB5D1D8F8003031461B684046984745
:10367000D8F80C400546D5E70224A9E70724A7E7B8
:103680006846FCF743FE04F000F800BFD385000055
:10369000E085000007B5FFF779FF023809284ED80A
:1036A000DFE800F0050D151D25572D353D45314945
:1036B0006846FCF70DFE684601F018F946E02E4911
:1036C0006846FCF705FE684601F010F93EE02B491C
:1036D0006846FCF7FDFD684601F008F936E0284928
:1036E0006846FCF7F5FD684601F000F92EE0254933
:1036F0006846FCF7EDFD684601F0F8F826E022493F
:103700006846FCF7E5FD684601F0F0F81EE01F4949
:103710006846FCF7DDFD684601F0E8F816E01C4954
:103720006846FCF7D5FD684601F0E0F80EE019495F
:103730006846FCF7CDFD684601F0D8F806E016496A
:103740006846FCF7C5FD684601F0D0F86846FCF70E
:10375000DDFD03B05DF804FB6846FCF7D7FD03F020
:1037600094FFF9E7F8E7F7E7F6E7F5E7F4E7F3E7BB
:10377000F2E7F1E770850000808500008B8500008E
:103780009385000099850000B4850000BD85000088
:10379000C7850000AB8500007285000000680368E3
:1037A0009B69184708B5042000F07AF803681B6B82
:1037B0009847012008BD006803689B6A184710B548
:1037C000022000F06DF803685B6A9847032000F060
:1037D00067F803685B6A9847042000F061F80368A3
:1037E0005B6A9847052000F05BF8BDE8104003686D
:1037F0005B6A1847006803685B6B184700680368DA
:103800009B6B184773B50C46898805460C2915D85B
:103810002046FFF701FE69460646204602F02CF8D6
:103820006946044602462846FFF799FE30B12868EB
:10383000224603686946DD6B3346A84702B070BD77
:10384000064B10B50360002303710423C3600446D4
:1038500000F000FFA060204610BD00BF0C860000F5
:1038600037B500240D4D32216846FCF727FD6A4626
:103870001021281902F02FF8684601F037F8684641
:103880001034FCF743FDB4F5807FECD103B030BDBC
:103890006846FCF73BFD03F0F8FE00BFFC080002A1
:1038A00010B5044647480378BFF35B8FDB0708D4A5
:1038B00004F02BF828B1444800F0EAFB414804F03A
:1038C00033F842480378BFF35B8FD90708D404F07C
:1038D0001CF828B13E4800F07DF93C4804F024F87B
:1038E0003C480378BFF35B8FDA070DD404F00DF882
:1038F00050B13948FFF7A4FF374B384A35481A60B2
:1039000000221A7104F010F835480378BFF35B8F7A
:10391000DB0708D403F0F9FF28B13248FEF74CFE6C
:103920002F4804F001F830480378BFF35B8FD907C4
:103930000BD403F0EAFF40B12C48FEF74FF82C4AB5
:103940002A4B29481A6003F0EFFF2A480378BFF397
:103950005B8FDA070DD403F0D8FF50B12648FEF78D
:103960003DF8254B254A23481A6001221A7603F0B8
:10397000DBFF23480378BFF35B8FDB0708D403F03A
:10398000C4FF28B11F48FFF789FA1D4803F0CCFF98
:10399000601E06289ABF1C4B53F82000002010BD63
:1039A000084803F0BEFF03F070FE0848F9E7094835
:1039B000F7E70B48F5E70C48F3E70E48F1E7104846
:1039C000EFE700BFE8080002580A0002E40800021E
:1039D000400A0002EC080002700A0002E0810000C8
:1039E000E0080002180A0002DC080002FC090002DC
:1039F0001C830000F4080002A00A00029483000067
:103A0000F0080002800A0002E88500000021034B54
:103A10004FF480720248196003F01DB9F8080002E3
:103A2000FC08000238B543890546E3B10E4C236813
:103A30001033B3F5807F06D900214FF480720B4814
:103A4000216003F008F96A8921680F2AA8BF0F22B4
:103A500006484B1C425469681844236003F0D6F8AA
:103A600023680F33236038BDF8080002FC08000209
:103A700010B500210446064B4FF4807205481960CA
:103A800003F0E9F82046BDE81040FFF7CBBF00BFC8
:103A9000F8080002FC0800020120704700230371AF
:103AA000704708B500214069FDF736FC01F0A4FF1E
:103AB00000234360836008BD07B52E21806800F0B5
:103AC000A6FD0B4B0B49002808BF19466846FCF7BA
:103AD000FFFB684600F00AFF6846FCF717FC03B0DE
:103AE0005DF804FB6846FCF711FC03F0CEFD00BF57
:103AF000958600008F86000007B52E21806800F0B3
:103B000086FD0B4B0B49002808BF19466846FCF799
:103B1000DFFB684600F0EAFE6846FCF7F7FB03B0FF
:103B20005DF804FB6846FCF7F1FB03F0AEFD00BF57
:103B3000798E0000A386000037B504460368DB6970
:103B4000984701216069FDF7D3FB012001F038FEA1
:103B50006069FDF7C5FB0128054607D01A4968468C
:103B6000FCF7B6FB684600F0C1FE19E00021606971
:103B7000FDF7BEFB284601F023FE6069FDF7B0FBB0
:103B800038B912496846FCF7A3FB684600F0AEFE60
:103B900006E00F496846FCF79BFB684600F0A6FE6E
:103BA0006846FCF7B3FB00216069FDF7A1FB2368C1
:103BB00020461B6A984703B030BD6846FCF7A6FB59
:103BC00003F063FDF9E7F8E74C8600006586000026
:103BD0007686000010B50446FFF732FE054B2360E1
:103BE000FDF7DAF960610020FDF72AFC206120462C
:103BF00010BD00BFB086000070B506460C46082513
:103C0000230647BF10220821082210217069FDF702
:103C100019FB6400013DE4B2F2D1012070BD10B582
:103C200004464069FDF7CCF960691022BDE81040F8
:103C30002021FDF707BB002370B506460C4608257A
:103C40000B7023785B0023707069FDF791FA68B1FF
:103C5000132809D80C289EBF237843F00103237052
:103C6000013DEED1012070BD4FF0FF3070BD00234B
:103C700037B5054602AC04F8013D3F214069FDF728
:103C80007FF921462846FFF7D6FF03B030BD70B557
:103C9000044608460E46FFF7EBFE236960224621E4
:103CA0006069FDF7F3F928B96069FDF789F94FF00C
:103CB000FF3070BD00220D211046FDF79FF8204611
:103CC000FFF7ADFF00257389AB420CDD736820461A
:103CD000595DFFF791FF20B901220D21FDF78EF804
:103CE000E2E70135EFE76069FDF7B7FA002001224E
:103CF0000D21FDF783F82046BDE87040FFF7B7BF00
:103D000010B50446226923216069FDF773F9431C4D
:103D100003D01D28F6D9012010BD002010BD10B51C
:103D200004460F2001F062FD2046BDE81040F1215D
:103D3000FFF762BFF8B500244C8105460E461746D2
:103D4000FFF7DEFF90B30B2120462246FDF756F821
:103D50001B216869FDF714F9A74209DD716828463F
:103D60002144FFF768FF002802D015DB0134F3E798
:103D70006869FDF725F92846FFF7D1FF6869FDF767
:103D80001FF901220B2174810020FDF737F830461E
:103D9000FFF748FE0120F8BD6869FDF711F9002022
:103DA00001220B21FDF72AF84FF0FF30F8BD08B5CE
:103DB00001F022FEBDE8084001F04EBE2DE9FF47AC
:103DC0000D461646994604469DF830A0FFF7EFFFD2
:103DD0003221074602A8FCF771FA032001F010FC1B
:103DE000B2B22946019001F003FC019803689B6878
:103DF0009847019B39465B6820695D78FDF7F6FAC4
:103E000001992046FFF743FF421C06D0002863D0EB
:103E100039462069FDF7EAFA0AE0082401A8FEF70E
:103E20000DFD02A8FCF772FA204604B0BDE8F08749
:103E30000026B0460135EDB20D2201992046FFF76C
:103E400079FF431C4AD0002840D0019A5389053B92
:103E50009BB2062B34D853685B78AB4230D101F06B
:103E6000CBFD80462069FDF7DDFA0146404601F0B2
:103E700002FE394620690136FDF7B8FA1821A0681C
:103E800000F0C5FB38B1BAF1000F0CD1002102A837
:103E9000FCF74CFA12E0019803681B699847002868
:103EA000F1D10A24BAE701984389002BEED002A988
:103EB00001F099FB02A800F019FDE7E74FF00108B7
:103EC0002069FDF7A7FA08B94E45B5D3B8F1000F40
:103ED00014BF07240424A1E704249FE709249DE7D5
:103EE00001A8FEF7ABFC02A8FCF710FA03F0CDFB2B
:103EF000F9E713B501240094FFF760FF02B010BD8D
:103F00007FB5002301258DF80D3003688DF80C5026
:103F1000DB690E4604469847FFF7A4FAFFF731FB2A
:103F2000022803D12846257104B070BD4FF0FF333D
:103F30000096022203A92046FFF740FF07280CBF86
:103F400001230023237103D0236820461B6A98476E
:103F50002079E9E70220704700230371704708B514
:103F600001214069FDF7D8F901F046FD00234360C7
:103F7000836008BD07B52E21806800F048FB0B4B1D
:103F80000B49002808BF19466846FCF7A1F96846A6
:103F900000F0ACFC6846FCF7B9F903B05DF804FB2F
:103FA0006846FCF7B3F903F070FB00BF39870000E7
:103FB0003387000007B52E21806800F028FB0B4BEB
:103FC0000B49002808BF19466846FCF781F9684686
:103FD00000F08CFC6846FCF799F903B05DF804FB2F
:103FE0006846FCF793F903F050FB00BF5E840000C5
:103FF0004787000037B504460368DB69984701210D
:104000006069FDF775F9012001F0DAFB6069FDF7E1
:1040100067F90128054607D01A496846FCF758F9A0
:10402000684600F063FC19E000216069FDF760F963
:10403000284601F0C5FB6069FDF752F938B912490D
:104040006846FCF745F9684600F050FC06E00F4969
:104050006846FCF73DF9684600F048FC6846FCF706
:1040600055F900216069FDF743F9236820461B6A72
:10407000984703B030BD6846FCF748F903F005FBEC
:10408000F9E7F8E7F0860000098700001A870000CA
:1040900010B50446FFF7D4FB054B2360FCF77CFF0B
:1040A00060610020FDF7CCF92061204610BD00BF03
:1040B000548700002DE9F041044608468846FFF782
:1040C000D7FC236940F205124FF496716069FCF742
:1040D000DDFF00284CD000220D211046FCF78EFE9B
:1040E000C8216069FDF70AF80026B8F80A30B34223
:1040F00035DD0827D8F804309D5D17F1FF372CD344
:1041000017F0010F6BB21ED0002B16DA6069802108
:10411000FDF716F8402001F069FB6069FDF7E0F853
:10412000C0B16069FCF74CFF01220D210020FCF7B3
:1041300065FE4FF0FF30BDE8F08160694021FCF77B
:10414000FFFF2020E7E7002BB4BF402180216069FA
:10415000FCF7F6FF6D00EDB2CFE70136C5E7606909
:10416000FCF7FCFF002001220D21FCF747FE012097
:10417000BDE8F08110B504462269EF216069FCF7C3
:1041800039FF431C03D0A228F6D9012010BD00201E
:1041900010BD2DE9F04700244C8107460E4691469C
:1041A000D1F80480FFF7E6FF00283BD022460B2120
:1041B0002046FCF723FE4C451BDA4FF0090A00208D
:1041C000BAF1010A0FD04000C5B27869FCF742FF8E
:1041D00078B1A0F12203812B1AD8602894BF284619
:1041E00045F00100ECE780F0550008F804000134C8
:1041F000E1E77869FCF7E4FE01220B2174810020DD
:10420000FCF7FCFD3046FFF70DFC0120BDE8F08710
:104210007869FCF7D5FE002001220B21FCF7EEFDAA
:104220004FF0FF30BDE8F08708B501F0E5FBBDE8D1
:10423000084001F011BC2DE9FF470D46164699468E
:1042400004469DF830A0FFF7EFFF3221074602A891
:10425000FCF734F8042001F0D3F9B2B229460190FA
:1042600001F0C6F9019803689B6898470421A0688B
:1042700000F0CDF948B1019B5B685D780135EDB286
:1042800039462069FDF7B2F805E06B21A06800F01F
:10429000CEF9C5B2F4E701992046FFF70BFF0130D4
:1042A00001285BD939462069FDF7A0F80026B04601
:1042B0000D2201992046FFF76CFF431C42D00028D5
:1042C00046D0019A5389053B9BB2062B3AD85368D6
:1042D0005B78AB4236D101F08FFB80462069FDF759
:1042E000A1F80146404601F0C6FB39462069013677
:1042F000FDF77CF81821A06800F089F938B1BAF10F
:10430000000F15D1002102A8FCF710F818E0019861
:1043100003681B6998470028F1D10A2401A8FEF719
:104320008DFA02A8FBF7F2FF204604B0BDE8F08743
:1043300002A9019801F057F902A800F0D7FAE1E7C5
:104340004FF001082069FDF765F808B94E45AFD375
:10435000B8F1000F14BF07240424DFE70824DDE7C9
:1043600001A8FEF76BFA02A8FBF7D0FF03F08DF966
:10437000F9E713B501240094FFF75DFF02B010BD0B
:104380007FB5002301258DF80D3003688DF80C50A2
:10439000DB690E4604469847FFF764F8FFF7F1F82B
:1043A000022802D1257104B070BD4FF0FF33009692
:1043B000022203A92046FFF73EFF07280CBF012376
:1043C0000023237103D0236820461B6A9847237972
:1043D000002B14BF02200020E5E7FFFF38B504469C
:1043E00029480378BFF35B8FDB070ED403F08DFA07
:1043F00058B127212548FBF761FF234803F094FAC1
:10440000234A2449214801F058FB20488388252B62
:1044100002D90021FBF78AFF00F01CF9142100F0FB
:10442000F6F830B10A2C12D1204602F0A9FB18B9D7
:1044300038BD0D2CF8D117E021461448FBF7E4FFF6
:10444000002038BD104803F06CFA03F01EF9124D3D
:1044500021462868FCF7B6FB0D2CE5D100F0FAF8F0
:10446000222100F0D4F848B908490C48FBF7FCFFBA
:1044700000210648FBF75AFF012038BD0A212868B1
:10448000FCF7A0FBF0E700BFBC0A0002CC0A000268
:10449000DC0100020D030000C00A0002C40A000291
:1044A000024B01461868FCF795BB00BFC00A00022A
:1044B00070B501F005FB2C4B2C4CD3F8C82000251F
:1044C00042F00102C3F8C8209A6C294E22F0010282
:1044D0009A64D3F8C82042F00202C3F8C8209A6C4C
:1044E00022F002029A64D3F8C42042F40062C3F8B6
:1044F000C420D3F8C42042F48052C3F8C420D3F8B7
:10450000C42042F40052C3F8C420D3F8C42042F4BB
:104510008042C3F8C420FCF7B3FAFCF71FFCFCF799
:104520009FF8FDF775F8FCF789FCFBF7EDFFFCF74A
:1045300083FA4FF4E1312060FCF7D0FA23680D4A8A
:10454000C3F81C23FCF748FF00F0A0FA236893F897
:10455000182332B183F81853304600F0EBF930BF1E
:10456000F4E700F0BCF9FAE700400740C00A000297
:10457000C40A0002DD43000010B5064C2721204686
:10458000FBF79CFE2046BDE81040034A034901F0BA
:1045900094BA00BFC40A0002DC0100020D0300004F
:1045A000F8B50022002304460027C0E9002300F1EB
:1045B000380500F18806EF712846072200210835EA
:1045C00002F049FBAE42F6D13022002104F108008E
:1045D00002F041FB2046F8BD402970B506460BDCD1
:1045E000D0E900454AB10A460120002101F00AFB4A
:1045F00020432943C6E9000170BD0A46012000217D
:1046000001F000FB24EA000025EA0101F2E740295D
:1046100008B50A4605DC03C801F0E8FA00F001001D
:1046200008BD0020FAE7623940F82120704762395E
:1046300050F8210070476FF47873194400EBC10300
:104640001068516803C370476FF47873194400EB26
:10465000C100704710B5094C2378BFF35B8FDB07AF
:1046600009D4204603F051F928B10548FFF798FF17
:10467000204603F059F9024810BD00BFD40A0002D9
:10468000D80A000237B5002300220446C0E90023FF
:1046900000F1380100F1080343F8042B8B42FBD1F1
:1046A0006D468DF8072000210722684602F0D3FAF4
:1046B0002346503403F1380208339C4295E8030046
:1046C00082E80300F6D103B030BD70472DE9F04F0A
:1046D000804685B00F469146B2B10B462C4D022262
:1046E00041466846FBF7A3FE0024AB46023795F827
:1046F00008A01AF1000318BF01234B4509D129680E
:104700006846FBF7D4FE02E04FF0FF33E6E70646CB
:1047100068BB0134602C05F11005E8D1002612E0D9
:104720004FF0FF333A46414602A8FBF780FE26E0F1
:104730006A7A934227DC0BEB0414E36853B91E46F4
:1047400002A8FBF7E3FD6846FBF7E0FD304605B045
:10475000BDE8F08F616802A89847F1E702A8FBF76F
:10476000D5FD6846FBF7D2FD02F08FFFF9E7B9F1FE
:10477000000FD5D1074902A8FBF7AAFDDBE7BDF87A
:104780000C309A45D4DD02A8FBF7C0FDC1E700BF9D
:10479000388800009687000010B5FFF75BFF0446DD
:1047A000FEF760FE01220021FEF784FE2046FFF79F
:1047B00069FF204600221821FFF70EFF2046012244
:1047C0002221FFF709FF204601221421FFF704FFF1
:1047D000204601222B21FFF7FFFE204601222E2139
:1047E000FFF7FAFE204600222021FFF7F5FE2046C3
:1047F00000220921FFF7F0FE204601220A21FFF7DF
:10480000EBFE204601220421FFF7E6FE20460022AF
:104810000E21FFF7E1FE204601220D21FFF7DCFE0D
:10482000204601221E21FFF7D7FE204633226821B1
:10483000FFF7F9FE204696226F21FFF7F4FE20468F
:10484000F1226721FFF7EFFE2046F1226721FFF7F3
:10485000EAFE2046BDE8104000226D21FFF7E3BECE
:1048600010B50446FEF7FEFD2146BDE81040FEF7F8
:10487000C9BF08B5FEF7F6FDBDE80840FEF792BFD8
:1048800008B5FEF7EFFDBDE80840FEF70BBE08B522
:10489000FEF7E8FDBDE80840FEF700BE08B5FEF7EC
:1048A000E1FDBDE80840FEF7A9BF08B5FEF7DAFD57
:1048B000BDE80840FEF7FABDFCF744BD08B5FEF7B9
:1048C000D1FDBDE80840FEF77ABF7047002110B562
:1048D0000446C171072202F0BEF9204610BD08B59A
:1048E000FEF7C0FDBDE80840FEF765BF07B501460D
:1048F0006846FBF7FEFCFFF7ADFE2221FFF787FEBF
:1049000060B10A496846FBF77DFD6846FFF7C8FDC0
:104910006846FBF7FBFC03B05DF804FB0449F1E7D4
:104920006846FBF7F3FC02F0B0FE00BF948700007E
:104930009787000037B504463E480378BFF35B8F86
:10494000DB070ED402F0E1FF58B127213A48FBF70C
:10495000B5FC384802F0E8FF384A3949364801F0DA
:10496000ACF82046FBF71CFC2046FBF736FCA3887E
:1049700073B920463049FBF777FD2146684602238C
:104980000022FBF754FD2F496846FBF798FD02E033
:1049900021462948EFE705466846FBF7B7FCC5B155
:1049A0002046FBF70BFC38B927496846FBF790FC1B
:1049B0006846FFF79BFF29E0FEF754FD2146FEF70E
:1049C00069FE22496846FBF783FC6846FFF768FDED
:1049D00020E02A4604212046FFF778FE0028F0D187
:1049E000012204212046FFF771FE0028E9D10122AF
:1049F00003212046FFF76AFE0028E2D101220221AE
:104A00002046FFF763FE0028CED0DAE76846FBF7C2
:104A10007DFCD6E76846FBF779FC03B030BD05485E
:104A200002F07FFF02F031FE6846FBF76FFCF9E70A
:104A3000FAE7F9E7600B0002640B0002DC010002F8
:104A40000D03000099870000348800009C87000057
:104A500007B5FEF707FDFEF7A1FEFFF79DFEFEF787
:104A6000D5FF09496846FBF733FC6846FFF73EFF70
:104A70006846FBF74BFC03B05DF804FB6846FBF7A8
:104A800045FC02F002FE00BF698E000007B50F4929
:104A90006846FBF71DFC27216846FFF7D9FF6846EB
:104AA000FBF734FC0A496846FBF712FC6846FFF73F
:104AB000F7FC6846FBF72AFC03B05DF804FB684688
:104AC000FBF724FC02F0E1FDF9E700BF9687000048
:104AD0009C87000037B502681378412B83885FD12B
:104AE000022B5DD15278422A4AD13449FBF7DFFCD0
:104AF000044640BB32496846FBF7EAFB6846FFF7CD
:104B0000F5FE2FE005466846FBF700FC0024FFF7A2
:104B1000A1FD22462E21FFF75FFDFEF7A3FC012237
:104B20002946FEF7C7FC01280FD1FFF793FD2A465F
:104B30006921FFF778FD23496846FBF7C9FB684602
:104B4000FFF7D4FE0EE00025E1E7FFF783FD00222A
:104B50002E21FFF741FD1A496846FBF7B9FB68466D
:104B6000FFF7C4FE6846FBF7D1FB03B030BD6846D3
:104B7000FBF7CCFB02F089FDF9E7F8E7F7E7F6E78A
:104B8000014601226846FBF752FC102200216846CC
:104B9000FBF734FB05466846FBF7B8FB0124B6E794
:104BA000012BA2D10146002268460223FBF73FFCFD
:104BB000102200216846FBF721FBA3E7E2850000F5
:104BC00034880000758E000010B504468CB068462D
:104BD000FFF77CFE02A8FFF779FE022300222146A0
:104BE00004A8FBF724FC4FF0FF330222214606A85D
:104BF000FBF71DFC694604A800F03EFE00283FD0EC
:104C000002A906A800F038FE002839D0BDF81430FB
:104C10005B088DF80730FFF71DFD36E008A8FFF7A9
:104C200065FE08A8FBF772FB06A8FBF76FFB04A85C
:104C3000FBF76CFB0CB010BDBDF81C305B088DF8A9
:104C40000F30FFF707FD02AA40F2EE31FFF7F3FC49
:104C500011490AA8FBF73CFB0AA8FFF747FE0AA880
:104C6000E0E708A8FBF752FB06A8FBF74FFB04A8F8
:104C7000FBF74CFB02F009FD0AA8F3E7F4E7F6E7BF
:104C8000064908A8FBF724FBC8E76A4640F2ED3165
:104C9000FFF7D1FCD0E700BF758E0000348800001C
:104CA0007FB5FBF793FC40F2BC43434340F65420EE
:104CB000B3FBF0F364200533B3FBF0F20A2100FBF1
:104CC000123303A8B3FBF1F30A4902F0CBF803A9AE
:104CD00001A8FBF7FDFA01A8FFF708FE01A8FBF702
:104CE00015FB07B05DF804FB01A8FBF70FFB02F012
:104CF000CCFC00BF388E000007B5FEF7B3FBFEF713
:104D00004DFD09496846FBF7E3FA6846FFF7EEFDFB
:104D10006846FBF7FBFA03B05DF804FB6846FBF757
:104D2000F5FA02F0B2FC00BF758E000007B5094924
:104D30006846FBF7CDFA6846FFF7D8FD6846FBF7F3
:104D4000E5FA03B05DF804FB6846FBF7DFFA02F012
:104D50009CFC00BF698E0000F7B50746FFF77AFCA0
:104D600040F2EB310446FFF76FFC40F2EA310646B1
:104D70002046FFF769FC1022054600213846FBF764
:104D80003DFA0128024617D009D302282CD0284921
:104D90006846FBF79DFA6846FFF7A8FD39E0002258
:104DA00065212046FFF73FFC22496846FBF790FA51
:104DB0006846FFF79BFD2CE0F3796BB1EB795BB1B3
:104DC00065212046FFF72FFC1A496846FBF780FA59
:104DD0006846FFF78BFD1CE015496846FBF778FA3B
:104DE0006846FFF783FD14E0EB795BB1652120464F
:104DF000FFF719FC0F496846FBF76AFA6846FFF7A8
:104E000075FD06E00A496846FBF762FA6846FFF757
:104E10006DFD6846FBF77AFA03B0F0BD6846FBF714
:104E200075FA02F032FCF9E7F8E7F7E7F6E7F5E79D
:104E300034880000758E000007B5FFF7ADFC094906
:104E40006846FBF745FA6846FFF750FD6846FBF7F2
:104E50005DFA03B05DF804FB6846FBF757FA02F011
:104E600014FC00BF758E000007B509496846FBF7C2
:104E70002FFA6846FFF73AFD6846FBF747FA03B09A
:104E80005DF804FB6846FBF741FA02F0FEFB00BF49
:104E9000758E000013B516490446FBF708FB68B988
:104EA00020461449FBF703FB044640B91249684603
:104EB000FBF70EFA6846FFF719FD0DE00024FFF737
:104EC000C9FB22460E21FFF787FB0C496846FBF71A
:104ED000FFF96846FFF70AFD6846FBF717FA02B0CC
:104EE00010BD6846FBF712FA02F0CFFBF9E700BFEE
:104EF000798E0000A284000034880000758E0000C6
:104F000030B5054687B002A8FFF7E0FCFFF7A2FB2B
:104F1000AB880446B3B902AA40F2E931FFF78BFB34
:104F200002AA4FF47B712046FFF785FBFEF79AFA41
:104F3000FEF760FC1D4904A8FBF7CAF904A8FFF7B7
:104F4000D5FC20E0032B01D0082B27D1002301AA98
:104F500004A928460193049300F0EEFC022304A95F
:104F6000042202A88DF80F3001F050FE02AA20465C
:104F700040F2E931FFF75FFB042202A80DEB0201CA
:104F800001F044FECCE704A8FBF7C0F907B030BD40
:104F900004A8FBF7BBF902F078FBF9E7044904A881
:104FA000FBF796F904A8FFF7A1FCECE7758E00006B
:104FB0003488000010B58AB00C4601466846FBF7FD
:104FC00098F902A8FFF782FCBDF80430032B0BD13F
:104FD0006A46204904A8FBF77AFA04A96846FBF759
:104FE00043FA04A8FBF792F902A9684600F044FCD2
:104FF000C8B1BDF804305B088DF80F30FFF72AFB0D
:1050000002AA2146FFF717FB134906A8FBF760F930
:1050100006A8FFF76BFC06A8FBF778F96846FBF7D4
:1050200075F90AB010BD0D4908A8FBF751F908A899
:10503000FFF75CFC08A8EFE704A8FBF767F96846F0
:10504000FBF764F902F021FB06A8F6E708A8F4E7ED
:10505000F5E700BFE3850000758E0000348800008E
:1050600008B5FFF7A7FFFEF7FDF9BDE80840FEF71A
:10507000C1BBFFFF1FB50C466846FFF727FCFFF7D3
:10508000E9FA6A462146FFF7D6FA084902A8FBF773
:105090001FF902A8FFF72AFC02A8FBF737F904B0B2
:1050A00010BD02A8FBF732F902F0EFFA758E00008E
:1050B00013B50C46FFF7CEFA00222146FFF78CFA13
:1050C00008496846FBF704F96846FFF70FFC684695
:1050D000FBF71CF902B010BD6846FBF717F902F0A8
:1050E000D4FA00BF758E000037B50D46102200219E
:1050F000FBF784F8431C04460DD0FFF7ABFA2246B9
:105100002946FFF790FA0D496846FBF7E1F8684633
:10511000FFF7ECFB06E00A496846FBF7D9F868465A
:10512000FFF7E4FB6846FBF7F1F803B030BD6846D3
:10513000FBF7ECF802F0A9FAF9E700BF758E000062
:105140003488000038B50D460446FFF783FA042181
:105150000022FFF741FA29462046BDE83840FFF714
:10516000C3BFFFFF07B500F047FC022309490360F6
:105170006846FBF7ADF86846FFF7B8FB6846FBF7F3
:10518000C5F803B05DF804FB6846FBF7BFF802F012
:105190007CFA00BF758E000007B500F02DFC0123DE
:1051A000094903606846FBF793F86846FFF79EFBE2
:1051B0006846FBF7ABF803B05DF804FB6846FBF705
:1051C000A5F802F062FA00BF758E000007B500F086
:1051D00013FC0023094903606846FBF779F8684629
:1051E000FFF784FB6846FBF791F803B05DF804FB1A
:1051F0006846FBF78BF802F048FA00BF758E000096
:1052000013B50C46FFF726FA01222146FFF7E4F911
:1052100008496846FBF75CF86846FFF767FB684695
:10522000FBF774F802B010BD6846FBF76FF802F0A8
:105230002CFA00BF758E000007B509496846FBF7D8
:1052400047F86846FFF752FB6846FBF75FF803B084
:105250005DF804FB6846FBF759F802F016FA00BF48
:10526000408E000007B514496846FBF731F86846E0
:10527000FFF73CFB6846FBF749F810496846FBF727
:1052800027F86846FFF732FB6846FBF73FF80C4902
:105290006846FBF71DF86846FFF728FB6846FBF7F2
:1052A00035F803B05DF804FB6846FBF72FF802F011
:1052B000ECF9F9E7F8E700BF458E00009E87000093
:1052C000E887000010B50446FFF7C4F92221FFF774
:1052D0009EF940B105492046FBF794F82046BDE809
:1052E0001040FFF7DDB80249F5E700BF94870000E2
:1052F000978700000320704730B5002304460A88D2
:10530000251AAA4204DD14F8015B2B44DBB2F7E74F
:10531000541C0C80835430BD00F10A014068FFF733
:10532000EBBF00F10A014068FFF7E6BF43681B7856
:105330009A090CBF012003209B0608BF013070476B
:10534000F0B50C8807462546FF2315F1FF3513D32A
:10535000092617F8012B013EF7D083EA020E1EF052
:10536000800F1DBF83F00E035B0043F001035B0061
:105370005200DBB2D2B2EEE7DB43621C0A80035577
:10538000F0BD00F10A014068FFF7DABF00F10A0141
:105390004068FFF7D5BF10B5044641684289C81C74
:1053A00001F03FFC638904F11001033363816068FD
:1053B000032201F02BFC04F10A016068BDE81040F3
:1053C000FFF79ABFF8B5037C04469A090CBF012584
:1053D000032513F00F0F0CBF0127002742893F2A36
:1053E000C8BF47F0010707B101356168D6B2481957
:1053F00001F017FC2A4604F11001606801F006FC78
:1054000063892B446381636877B11D4405F8016C9F
:105410006268137823F03F03137004F10A01606897
:10542000BDE8F840FFF768BF1A7822F03F02164344
:105430001E70F2E710B504464289033A92B24281E7
:105440004068C11C01F0EDFB63890120013B6381D1
:1054500010BD036810B504465B69984762896368AC
:10546000121A92B219186281184601F0DAFB6389A8
:105470000120013B638110BD10B50446416842899B
:10548000C81C01F0CEFB638904F110010333638172
:105490006068032201F0BAFB04F10A016068BDE80C
:1054A0001040FFF74DBF10B5044662894068033ACB
:1054B00092B26281C11C01F0B4FB63890120013BFF
:1054C000638110BD10B5044641684289C81C01F0D3
:1054D000A8FB638904F11001033363816068032230
:1054E00001F094FB04F10A016068BDE81040FFF789
:1054F00027BF10B5044662894068033A92B26281C0
:10550000C11C01F08EFB63890120013B638110BD4A
:10551000064B10B503600023044601724381C2604C
:10552000104600F0C4FA6060204610BDEC8F000009
:10553000044B10B504460360406808B100F0BBFAA4
:10554000204610BDEC8F000010B50446024B0360EE
:10555000FFF7EEFF204610BD0C90000010B504468A
:10556000FFF7F2FF204600F0A4FA204610BDFFFF2F
:1055700010B50446024B0360FFF7DAFF204610BD6A
:105580002C90000010B50446FFF7F2FF204600F013
:1055900090FA204610BDFFFF10B50446024B036091
:1055A000FFF7C6FF204610BDCC8F000010B50446A3
:1055B000FFF7F2FF204600F07CFA204610BDFFFF07
:1055C00010B50446024B0360FFF7B2FF204610BD42
:1055D000AC8F000010B50446FFF7F2FF204600F044
:1055E00068FA204610BD0A464189406800F073B948
:1055F0004281406801F00ABB0322103001F006BB73
:1056000013B50138032855D8DFE800F00211413501
:10561000142000F04AFA40F2091201210446FFF773
:1056200077FF2046284B40F8103B284B0DE0142014
:1056300000F03BFA40F2091202210446FFF768FF2E
:105640002046234B40F8103B224B1A889B7801A937
:10565000ADF8042003228DF8063001F0D7FAFEF7EA
:10566000F9FF40F2EE31FEF7EFFFC3790146EBB9E7
:10567000204602B010BD142000F017FA40F20912C3
:1056800004210446FFF744FF2046134BCBE71420C8
:1056900000F00BFA40F2091203210446FFF738FF2D
:1056A00020460E4B40F8103B0D4BCEE72046FFF74F
:1056B000A3FFDDE70024DBE7204600F0FAF901F064
:1056C000E4FFF9E7F8E7F7E7AC8F0000998F0000F7
:1056D000CC8F00009C8F00002C9000000C900000EC
:1056E0009F8F0000F7B505460C4600918DF80430F9
:1056F000C6B2C2B9C0F30320FAF788FD01462046BE
:10570000FAF782FE3009FAF781FD01462046FAF7E2
:105710007BFE06F00F00FAF779FD01462046FAF706
:1057200073FE03B0F0BD070E3809FAF76FFD0146AE
:105730002046FAF769FE07F00F00FAF767FD014609
:105740002046FAF761FEC5F307476846FDF79EFB62
:105750003809FAF75BFD01462046FAF755FE07F0D7
:105760000F00FAF753FD01462046FAF74DFEC5F348
:1057700007256846FDF78AFB2809FAF747FD014629
:105780002046FAF741FE05F00F00FAF73FFD01460B
:105790002046FAF739FE6846FDF778FBB2E770B5A8
:1057A0000D4616460446FEF755FF2B21FEF72FFF48
:1057B0003246034629462046BDE87040FFF792BFB7
:1057C00078B14FF47A72074B1B68B3FBF2F30022F7
:1057D0005843054B58609A6005221A601A68D20334
:1057E000FCD570470000000210E000E0084B094AB9
:1057F0001B68B3FBF2F300225843074B3238586062
:105800009A6005221A601A68D203FCD5704700BF5F
:105810000000000240420F0010E000E07FB50C469F
:105820000546144A01AB10685168128903C301A9E7
:1058300020461A80FAF729FE2878C0B100092668A8
:10584000FAF7E4FCB0702878266800F00F00FAF749
:10585000DDFCF070687826680009FAF7D7FCF07173
:105860006878246800F00F00FAF7D0FC207204B0CA
:1058700070BD00BF449000002DE9F34102258388EC
:105880000746DA0748BF03F1FF33884693FBF5F577
:105890000024AC4214D06200394668460223FAF76D
:1058A000C6FD102200216846FAF7A8FC06466846A5
:1058B000FAF72CFD731C07D008F804600134E8E700
:1058C000204602B0BDE8F0810020FAE76846FAF70A
:1058D0001DFD01F0DAFEF7B50E46044615460092AE
:1058E000FEF7B8FE2B21FEF792FE26448DF8040049
:1058F000A64216D0274614F8010B0009FAF786FCD9
:1059000001462846FAF780FD387800F00F00FAF7D4
:105910007DFC01462846FAF777FD6846FDF7B6FAA2
:10592000E6E79DF804302BB1A98819B10139284662
:10593000FAF7FCFC03B0F0BD2DE9F74300268146E1
:105940000F46904634463546B9F804309E4222D27E
:10595000D9F8003024F00F049B5D25F00F05582B7B
:1059600010D03246494668460123FAF760FD1022FE
:105970000021684644F00F04FAF740FC05436846EE
:10598000FAF7C4FCB9F80430013B9E423CBF240145
:105990002D010136D8E7032B10D1C4F30A031C02F2
:1059A000A4B244EA13242B029BB2C5F30725C8F81E
:1059B00000401D433D6003B0BDE8F083082BFAD1E1
:1059C00024F0604424BAC8F800402DBAF2E76846D3
:1059D000FAF79CFC01F059FE034610B50139014469
:1059E0000A1A1C1AA24206DD1A780C7803F8014B39
:1059F00001F80129F4E710BD38B50A4D2C78BFF342
:105A00005B8F14F001040BD1284601F07EFF38B102
:105A10000122054B284683E814009C6001F084FFB6
:105A2000014838BD6C0B0002700B000210B5FEF788
:105A300011FE6D21FEF7FBFD0446FEF70BFE0E2165
:105A4000FEF7E5FD002814BF0520012014B1A400D5
:105A5000604310BDC82010BD43680BB9FFF7E6BF17
:105A60000268012A04D0022AF8D103F10A00704723
:105A700003F11E00704730B5836885B0012B0446E2
:105A8000019103D80133836005B030BD43688B4278
:105A90002CBF051D01ADFFF7C9FF2B68039098428D
:105AA00098BF03AD2B686360EEE701F08DB801F09D
:105AB0008BB801F091B801F08FB800207047FFFF5C
:105AC0001B4A1C4BD2F8841001F0030102291ED09E
:105AD00003292BD0012911D0D2F8802002F0030233
